S01600005241344D325F50726F6A656374382E737265635A
S3150000000038060020C50B00002D0A0000C10B0000B9
S31500000010C10B0000C10B0000C10B0000C10B0000AA
S31500000020000000000000000000000000C10B0000FE
S31500000030C10B000000000000C10B0000C10B000056
S315000000400348044B834202D0034B03B11847704761
S31500000050080000200800002000000000064B0749A9
S31500000060C91A891048BF0131491003D0044B0BB19E
S3150000007001481847704700BF08000020080000200C
S315000000800000000010B5064C237843B9FFF7D8FFEF
S31500000090044B13B10448AFF300800123237010BD55
S315000000A02800002000000000D00E000008B5054B17
S315000000B01BB105490548AFF30080BDE80840FFF7CE
S315000000C0CDBF00BF000000002C000020D00E0000B5
S315000000D010B52949294800F013FA28B11321284BF5
S315000000E0284A294800F06EFC244800F00FF94FF426
S315000000F07A71142000F06EFC4FF416711F4800F060
S315000001000BF9044628B11B211D4B1E4A1E4800F060
S3150000011059FC4FF47A71142000F05CFC22469621BB
S31500000120164800F045F960B901224FF4E171134811
S3150000013000F03EF958B12121114B124A124800F045
S3150000014041FC1F210E4B0F4A0F4800F03BFC1420C8
S315000001504FF47A7100F03EFC084800F0FFFA28B12F
S315000001602521074B074A084800F02CFC4FF47A710A
S31500000170142000F02FFCFEE7780D00004C00002054
S31500000180440D00006C0D0000580D0000022800D040
S3150000019070470249024800F0AFB800BFD40D000016
S315000001A04400002008B5FFF793FF002008BD00BFFC
S315000001B02DE9F84F0388DBB180464FF000094FF078
S315000001C0010BDFF884A000241E4D4FEAC907D8F8BA
S315000001D0043035F8022BD919898891420AD00134A6
S315000001E0032CF4D1B8F8003009F101094B45EAD8DF
S315000001F0BDE8F88FDB590BFA04F603F0B853B3F1F8
S31500000200807FF6B29AF8BB340ED03342E7D0012095
S3150000021000F0ACFC9AF8BB34012023EA06038AF806
S31500000220BB3400F073FCDAE73342D8D1012000F08A
S315000002309DFC9AF8BB34012033438AF8BB3400F0A6
S3150000024065FCCCE7000E000000E00140F8B506466C
S31500000250FFF7AEFFEFF31082012383F31088234FDD
S315000002603B681BB92249CB704023CB703B680133F6
S315000002703B6082F31088338823B300211D4D08E0CC
S315000002801B01134445F82340328801318BB29A4250
S3150000029018D9736853F8314003EBC1029288E00322
S315000002A04FEA1223D2B2EBD502EB031055F820E049
S315000002B024F4803C2EF4803E45F820E01B0145F8EE
S315000002C020C0DEE7EFF31082012383F310883B683A
S315000002D013B13B68013B3B603B681BB98020044976
S315000002E0CB70C87082F31088F8BD00BFA400002050
S315000002F0000D08400008084008B5034B0360084697
S31500000300FFF7A4FF002008BD54524F5003460020BB
S31500000310D3E902235360704783684A1E9A6643688E
S315000003201B782BB983684908013959658368996533
S315000003308368D96AC90707D44FF4AA015A66836845
S315000003401964D0E90232DA600020704730B48C6E4E
S3150000035001342AB1944203D930BC013A1A6070477D
S31500000360029D496B0078ED0754BF01F01F01C1F3F0
S315000003700441032808D9090981F001016AB9A1B924
S3150000038030BC02225A60704701F00C01A1F1040151
S31500000390B1FA81F14909002AF1D0944201D8002925
S315000003A0EED130BC03225A607047002CE8D0F8E743
S315000003B09FED397B2DE9F04385B00092866802AB4C
S315000003C0074688461446406802F003090A46314645
S315000003D08DED027BFFF7BAFF039B356B93B914F0E3
S315000003E0080F14BF04220222A107029820D502F1A9
S315000003F0120106EB81014860B968133201EB8201F4
S315000004004860BE6862061BD5326CB9F1010F42F432
S315000004108002326427D025F44035BE6845EA03459C
S31500000420B9F1000F16D10020356305B0BDE8F083A1
S315000004304A44123206EB820250606206BE68E3D47A
S31500000440B9F1010F23D025F44035022C45EA0345C6
S31500000450E6D173B925F0407545EA0365002035639A
S3150000046005B0BDE8F08325F04075BE6845EA036532
S31500000470F4E70121786802AB009142463146FFF766
S3150000048065FF039B25F0407545EA0365E6E7022C08
S31500000490E0D1DEE7AFF30080FFFFFFFF00000000C2
S315000004A0002800DA704710B400F160430901124CCD
S315000004B0C9B203F5614383F80013104B44F82020BA
S315000004C000F1C00253F8221021F4803143F82210C3
S315000004D053F82230BFF35F8F012243099B0000F0DF
S315000004E01F0003F1604303F561438240C3F8802196
S315000004F01A605DF8044B7047A800002000600040B9
S315000005004FF0010C2DE9F04300270A7C41600CFAFC
S3150000051002F212F00F0FC2600CBF62463A46027436
S315000005200A7C8B4B0D4613441B0283604B690446C1
S3150000053043618B6985B0C0E90673CE69EFF310801D
S315000005408CF310884FF000412A7C824BD1401A6907
S3150000055022EA01021A611B6980F310884FF42542D2
S31500000560A36800201A60A3689FED777BDF62A3680B
S31500000570DF63A3689F642A782B7A032A4FF0004230
S31500000580A7684FEAC35308BF43F480336968FB6228
S31500000590A36801391A61A3685A61A3689A61A368BE
S315000005A05862A3689862A368B269DA61A368F269BF
S315000005B01A62A3689966A36859662B788DED027B4B
S315000005C0B76B002B40F089804FF0010903206A6861
S315000005D0D4F808805208013A0292C8F85420A1685B
S315000005E08A652978032903D9A168CA65A1680A66BC
S315000005F0B26BD2B93278AAB12A787178022A4FEA58
S31500000600811E4FEA011C00F09880032A03D00029BE
S315000006100CBF062209223A4342EA0E0242EA0C02C3
S3150000062042F48077B278002A6CD16268D26992F877
S315000006303010CB0705D5916AA3680139D96492F8C1
S3150000064030108B0703D5D26AA168013A0A650022E9
S31500000650A1688A63A168C1F88820B26B3AB996F896
S31500000660212096F82010520742EA4132174396F8A5
S315000006703020002A14BF4FF4A0014FF4AA01A2684B
S3150000068011642A78012A04D10022A168CA64A168EB
S315000006900A65A2685763A2681063A268C2F8309020
S315000006A0D4E90232DA60697C224695F91200FFF736
S315000006B0F7FE224696F8221096F92400FFF7F0FE80
S315000006C096F92500224696F82310FFF7E9FE00204A
S315000006D0214B236005B0BDE8F083012BD4F80880D8
S315000006E026D000904146EA68606802ABFFF72EFE0E
S315000006F0DDE902210B0643EA014343F0030043F020
S3150000070001096AE796F803C029784FEA0C12022914
S3150000071042EA8C1213D0032904D0BCF1000F0CBF9F
S31500000720062109210A4347EA024242F080777CE724
S31500000730994603204FF0FF324FE709226BE7092164
S31500000740F0E700BFAFF30080FFFFFFFF00000000EF
S3150000075090164000004008405450470030B44168AD
S31500000760034691F91220C969002A10DB012402F020
S315000007701F05AC405009204D203045F82040BFF3FE
S315000007804F8FBFF36F8F00241C4840F8224091F929
S315000007902420002A10DB012402F01F05AC4050097A
S315000007A0154D203045F82040BFF34F8FBFF36F8FB4
S315000007B00024124840F8224091F92520002A11DB36
S315000007C001200D4C510902F01F0C203100FA0CF0EB
S315000007D044F82100BFF34F8FBFF36F8F0020074906
S315000007E041F822000020D3E90221186091609B683D
S315000007F0586330BC704700BF00E100E0A80000204D
S31500000800064B074993F826001A6A51F82030C2F3BE
S3150000081002620449D3400B60704700BF00E001400C
S315000008200800002030020020704700BF4AF2035043
S3150000083001233F493F4A2DE9F041A1F8FE03A2F802
S315000008400431B2F804319BB2002BFAD101274FF4E0
S31500000850004120250920384CDFF8F4C0374EC4F893
S3150000086004C0DFF8F0C0324BC4F80CC0A2F8007127
S31500000870334A2660A1602161626193F82620196AD5
S3150000088054F822202F4EC1F30261CA40326083F829
S31500000890135483F8A20093F880241AB993F881348C
S315000008A09A073FD0224D95F8803483B30022204B1F
S315000008B083F8812483F8802400231D4A82F832308D
S315000008C092F83C301B07FBD50025032143F20218A2
S315000008D0F1274FF0F00E4FF4254C1B48A2F8288064
S315000008E082F82A50106282F8261092F82610106AB2
S315000008F054F82110154BC0F30260C14031601F73DC
S315000009001D7283F80CE0A2F8FEC3BDE8F081012158
S31500000910C82085F8801400F05DF895F88034012B26
S31500000920FBD1C3E74FF47A70FFF77EFFC4E700BF41
S3150000093000E0014000C0014008000020002D310108
S3150000094000E1F505300200202112021100200040CE
S3150000095000127A00001BB70038B50025164C01219D
S31500000960C82084F8285000F035F884F8245094F80C
S315000009702430002BFBD194F824300F4A43F00203B5
S3150000098084F8243092F82430C3F340019B07F9D44D
S31500000990094882F8221090F8223003F0FF04002B59
S315000009A0F9D1012000F0E2F8044B012083F8BB44A2
S315000009B0BDE8384000F0AAB80030084000E0014029
S315000009C0704700BF00BEFEE7A0F101000028FBD182
S315000009D0704700BF4FF47A7310B400FB01F1114C5D
S315000009E0114A2468B2FBF4F2A1FB03043CB9B0FB44
S315000009F0F2F0800860B15DF8044BFFF7E5BF9200A6
S31500000A00B1FBF2F1A1FB03132BB908460028F2D182
S31500000A105DF8044B70474FF0FF3C5DF8044B6046B1
S31500000A20FFF7D2BF3002002000CA9A3B70B50024FF
S31500000A300B4B0C4EB3F82021B3F84051ADB2154024
S31500000A4025FA04F3DB0704D556F82430E0B203B1E7
S31500000A50984701340E2CF3D1014BA3F8305170BDE9
S31500000A60006000406C00002030B5032085B000F027
S31500000A707DF86FF0FF054FF0FF31204C0023224632
S31500000A804FF0010E1E488564CDE90111039104F172
S31500000A90C00532F8020F590960B104A800EB8101C4
S31500000AA051F80C0C03F01F0C0EFA0CFC20EA0C009B
S31500000AB041F80C0C954203F10103EAD10199114B5F
S31500000AC00F4A03201167C3F8801202995167C3F8D1
S31500000AD0841203999167C3F8881200F017F800236F
S31500000AE0094834F8022F03F1C00101330AB140F876
S31500000AF02120A542F5D105B030BD00BF060E00008D
S31500000B000080004000E100E000600040EFF310814B
S31500000B10012383F31088124B33F8102092B22AB1C6
S31500000B2033F81020013A92B223F8102033F810302F
S31500000B309BB293B910B40B4A0B4CB2F8FE3334F89F
S31500000B4010009BB243F4254323EA0003A2F8FE33C8
S31500000B5081F310885DF8044B704781F31088704765
S31500000B602802002000E00140C80E000030B4EFF378
S31500000B701081012383F310880E4A32F810309BB29D
S31500000B806BB90D4C0D4DB4F8FE3335F810C09BB261
S31500000B9043EA0C0343F425439BB2A4F8FE3332F830
S31500000BA0103001339BB222F8103081F3108830BC2C
S31500000BB0704700BF2802002000E00140C80E000078
S31500000BC000BE704708B500F003F8FFF7EBFAFEE742
S31500000BD04FF4700270B52B4B2B4CC3F888200020C5
S31500000BE09C60FFF7D3FAFFF721FE0120FFF7CEFA4C
S31500000BF02368A3F5806383F30A882448244A0021E6
S31500000C00121A00F055F82348234A2449121A00F014
S31500000C1057F8234D234B5B1B002B07DD00249E104A
S31500000C2055F8043B01349847A642F9DCFFF7E8FD86
S31500000C30FFF792FE0320FFF799FF4FF6FF7200249D
S31500000C40194B03201A825A829A82DA821A835A83AD
S31500000C509A83DA83FFF75AFF0320FFF787FF134BC8
S31500000C6003205C609C60DC601C61FFF74FFF022084
S31500000C70FFF78CFAFFF7F8FE2046BDE87040FFF755
S31500000C809FBE00BF00ED00E000000000280000202D
S31500000C90340200200000002008000020D40E0000CE
S31500000CA00000002004000020000D084000000E4057
S31500000CB002440346934200D1704703F8011BF9E74B
S31500000CC00A44431E914200D1704710B511F8014BFA
S31500000CD0914203F8014FF9D110BDFFFF4275696CCF
S31500000CE07420776974682052656E6573617320415C
S31500000CF06476616E63656420466C657869626C65CE
S31500000D0020536F667477617265205061636B61670B
S31500000D10652076657273696F6E20352E352E30002C
S31500000D20352E352E3000000000000505F8B500BF51
S31500000D30F8BC08BC9E467047F8B500BFF8BC08BCB6
S31500000D409E4670474653505F535543434553532081
S31500000D503D3D2065727200002E2E2F7372632F6840
S31500000D60616C5F656E7472792E6300FF68616C5FFB
S31500000D70656E74727900FFFF0000000070170000B6
S31500000D8000000000B80B000005FFDF0000000000B7
S31500000D9000000000980D00000100010000000000A6
S31500000DA0000000000000000000000000000000003D
S31500000DB000000000000000000000FFFFDFDF000071
S31500000DC0000000000000000000000000000000001D
S31500000DD00000000004000000E00D0000000000001C
S31500000DE000000103000100000000010301010000F2
S31500000DF000000100080100000000010000030000DF
S31500000E00020403040404FFFF0000000000000000C9
S31500000E1000000000000000000000000000000000CC
S31500000E2000000000000000000000000000000000BC
S31500000E3000000000000000000000000000000000AC
S31500000E40000000000000000000000000000000009C
S31500000E50000000000000000000000000000000008C
S31500000E60000000000000000000000000000000007C
S31500000E70000000000000000000000000000000006C
S31500000E80000000000000000000000000000000005C
S31500000E90000000000000000000000000000000004C
S31500000EA0000000000000000000000000000000003C
S31500000EB0000000000000000000000000000000002C
S31500000EC00000000000000000010002000800100001
S30900000ED00000000018
S30D00000ED4AD00000085000000DE
S3150100A100FFFFFFFFFFFFFFFFFFFFFFFFFFFFFFFF58
S3090100A134FFFFFFFF24
S3150100A200FFFDFFFFFFFFFFFFFFFFFFFFFFFFFFFF59
S3150100A210FFFFFFFFFFFFFFFFFFFFFFFFFFFFFFFF47
S3150100A220FFFFFFFFFFFFFFFFFFFFFFFFFFFFFFFF37
S3150100A230FFFFFFFFFFFFFFFFFFFFFFFFFFFFFFFF27
S3150100A240FFFFFFFFFFFFFFFFFFFFFFFFFFFFFFFF17
S3150100A250FFFFFFFFFFFFFFFFFFFFFFFFFFFFFFFF07
S3150100A260FFFFFFFFFFFFFFFFFFFFFFFFFFFFFFFFF7
S3150100A270FFFFFFFFFFFFFFFFFFFFFFFFFFFFFFFFE7
S3150100A280F8F8FFFFFFFFFFFFFFFFFFFFFFFFFFFFE5
S3150100A290FFFFFFFFFFFFFFFFFFFFFFFFFFFFFFFFC7
S3150100A2A0FFFFFFFFFFFFFFFFFFFFFFFFFFFFFFFFB7
S3150100A2B0FFFFFFFFFFFFFFFFFFFFFFFFFFFFFFFFA7
S3150100A2C0FFFFFFFFFFFFFFFFFFFFFFFFFFFFFFFF97
S70500000BC52A
