S01700005241344D325F50726F6A65637432302E737265632F
S31500000000E8090020AD1F0000151E0000A91F000012
S31500000010A91F0000A91F0000A91F0000A91F0000BA
S31500000020000000000000000000000000A91F000002
S31500000030A91F000000000000A91F0000A91F000062
S31500000040711A0000951A0000411B00000000000014
S31500000050000000000000000000000000000000009A
S31500000060000000000000000000000000000000008A
S31500000070000000000000000000000000000000007A
S31500000080000000000000000000000000000000006A
S31500000090000000000000000000000000000000005A
S315000000A0000000000000000000000000000000004A
S315000000B0000000000000000000000000000000003A
S315000000C0000000000000000000000000000000002A
S315000000D0000000000000000000000000000000001A
S315000000E0000000000000000000000000000000000A
S315000000F000000000000000000000000000000000FA
S3150000010000000000000000000000000000000000E9
S3150000011000000000000000000000000000000000D9
S3150000012000000000000000000000000000000000C9
S3150000013000000000000000000000000000000000B9
S3150000014000000000000000000000000000000000A9
S315000001500000000000000000000000000000000099
S315000001600000000000000000000000000000000089
S315000001700000000000000000000000000000000079
S315000001800000000000000000000000000000000069
S315000001900000000000000000000000000000000059
S315000001A00000000000000000000000000000000049
S315000001B00000000000000000000000000000000039
S315000001C00348044B834202D0034B03B118477047E0
S315000001D0B0010020B001002000000000064B0749D6
S315000001E0C91A891048BF0131491003D0044B0BB11D
S315000001F001481847704700BFB0010020B001002039
S315000002000000000010B5064C237843B9FFF7D8FF6D
S31500000210044B13B10448AFF300800123237010BDD3
S31500000220D0010020000000005024000008B5054B56
S315000002301BB105490548AFF30080BDE80840FFF74C
S31500000240CDBF00BF00000000D401002050240000F4
S3150000025001F02EBF022800D070470249024800F084
S31500000260B1BC00BF00220000EC01002008B5FFF77A
S31500000270EFFF002008BD00BF544B02689A4200F011
S31500000280A28070B581670B6804460D46002B00F00E
S315000002908D804F4A1378022B25D84E4901EB430136
S315000002A081614D4901EB4301C1614C4901EB4301B9
S315000002B001624B4901EB830141624A4901EB43016B
S315000002C08162494901EB43010161484901EB430160
S315000002D04161474903EB430001EB4001C4F880103C
S315000002E0297C0B441370288BEB7C002866D184F89C
S315000002F02C302B7D84F82D30EB8AE3852B8B2386DF
S315000003002B7C002B3AD00022134611462E6806EBB2
S31500000310020CA669BCF804E0BCF802C026F813106B
S31500000320E669E64588BF032026F81310266A26F8F4
S315000003301310666A46F82310A66A26F813102E686C
S3150000034006EB020CBCF802C0266926F813C02E681C
S3150000035006EB020CBCF804C0666926F813C0D4F894
S315000003608060013306EB020CACF8021095F810E041
S315000003705FFA83FCE64502F10602C7D8B0B1EB6925
S315000003802A685B68A97E93F824305B002AB12A7C30
S31500000390C2EBC202023213449BB2164A053322F85C
S315000003A01130154A094B1460236070BDEB69E36791
S315000003B0D3E90112186812689047E0E7984294BFA3
S315000003C00320002093E70E20704700BF43554F548B
S315000003D0940200208802002084020020800200206F
S315000003E07802002074020020900200208C02002077
S315000003F0680200200802002004020020C36F034A9E
S3150000040010609A6818685368184700BF04020020F5
S315000004100020704710B4C06F846800686469A44601
S315000004205DF8044B604700BF30B5C36F83B09A6870
S315000004300D46044601A918689368984741F27073FF
S31500000440984230D041F2727398422CD0A36F1A7C36
S3150000045042B34FF0000C0DF1040E12E0EB8802FBE4
S3150000046003F32269525AB3FBF2F39BB24352A36FD2
S31500000470197C0CF1010C5FFA8CF291420EF1020E1E
S3150000048010D9E26F4FEA4C0152685279012AEFD136
S31500000490A269BEF8003032F81C2028689A1ADDD509
S315000004A00023E3E7002003B030BD00BF836F1A7C52
S315000004B0002A40D04FF0000C624630B51F4C1B6836
S315000004C0CD8863445B88B1F804E005FB03F3B3FB16
S315000004D0FEF305690CF1060C25F8123003690D7A56
S315000004E033F8123005FB03F3A4FB035345695B099C
S315000004F025F8123005690B6835F812E033F812302A
S315000005000EFB03F3A4FB03E35B0925F8123091F815
S3150000051008E09BB203FB0EF3A4FB035345695B099A
S3150000052025F81230836F013293F810E0D5B2AE454C
S31500000530C5D8002030BD0020704700BF1F85EB5195
S3150000054003460020D985704750B1064B02689A428F
S3150000055004D1C36F9A681868D36818470720704794
S315000005600120704743554F54A8B138B50B4B02686C
S3150000057004469A420DD1D0E91E01094A007C13783F
S315000005808D681B1A0868A9691370884700232360C1
S3150000059038BD072038BD0120704700BF43554F5472
S315000005A0940200202DE9F84FC36F8A469A680446E4
S315000005B0CC4918689368984741F27073984200F0E6
S315000005C0028141F27273984200F0FD80D4F878C03F
S315000005D0D4F880109CF81030002B3BD000234FF04D
S315000005E001091A4618461F46BE4DE66FBE46D6F8A6
S315000005F004C003EB43089CF850C081F804C0E66FC2
S31500000600D6F804C09CF805C0BCF1010F00F0DD80EF
S31500000610A76937F803C007EB0308BCF1000F01D147
S31500000620A8F80000D4F878C001329CF810E0D7B2E0
S31500000630774501F1060103F10203D6D3BEF1000F9F
S3150000064008D0BAF1000F05D0D4E90223CAE9002385
S31500000650D4F878C09CF81A20002A00F0C981A24973
S31500000660013A93B2881C00EB4300002331F8022FB5
S31500000670134481429BB2F9D11A4603F1010E9F1C25
S31500000680D11C04331FFA8EFEBFB29BB289B2974EBD
S315000006909748357885549CF81A2000F80E20E26FAA
S315000006A05268527902F0F702012A00F070810122A5
S315000006B0C255DCF81C20576897F8242097F8257057
S315000006C012FB07F2D2B2425411B2E2B1854A03EBF1
S315000006D08108118803F1010E52889F1C03F103095A
S315000006E05FFA81FA1FFA8EFE090A00F803A0BFB26C
S315000006F000F80E101FFA89F9D1B2120AC1551FFA75
S3150000070088F300F809209CF81020002A54D0002213
S31500000710C2545F1C991C9CF81030BFB289B2C355F5
S31500000720002B00F06B810B46D4E90218C2F12007BA
S31500000730D14008FA07F73943A2F1200728FA07F74C
S31500000740394301F00101C154A16903F1010E11F809
S3150000075012101FFA8EFE00F80E10A1699F1C31F8C8
S315000007601210BFB2090AC155216903F1030E11F82F
S3150000077012101FFA8EFE00F80E1021691F1D31F8A7
S315000007801210BFB2090AC155616903F1050E11F8CD
S3150000079012101FFA8EFE00F80E1061699F1D31F8C7
S315000007A01210BFB2090AC1559CF81070013291B2FD
S315000007B007338F429BB2B7D8C55401339BB2C35C93
S315000007C0002001353570BDE8F88FA06F006810F87D
S315000007D00800D4F8188035F8100038F803B09844AB
S315000007E0BBF1000F3FF41CAF4FF000060F704E70C8
S315000007F0A669F75A266936F803804744B7F5803F5D
S315000008006DD26669874236F803E073D24FF000076F
S31500000810266AF752D4F81CE094F82C803EF8037050
S31500000820B8457AD8A1F802C0278E94F82CC0BC45EA
S31500000830C0F09F80A2F12007C2F1200CE66829FAD9
S315000008400CFC09FA07F747EA0C073743A668E76086
S3150000085009FA02F73743A76091F800E091F801C062
S31500000860E78D002F3FF4DEAED4E90278CEF1200BFF
S3150000087027FA0EF7F44408FA0BFBAEF1200E28FA1D
S315000008800EFE47EA0B0747EA0E0717F00107D4F8F2
S3150000089024E061D15EF82C6006EB00084EF82C804F
S315000008A0D4F8288038F81CE00EF1010E28F81CE078
S315000008B0A66AB4F82EE036F81C80F045FFF4B2AE16
S315000008C0666A56F82C80A669B8FBFEFE26F81CE080
S315000008D0666A46F82C70A66A26F81C70A2E64FF0E7
S315000008E0000CBDE798020020060200201802002036
S315000008F01C020020A7EB0E07BFB2B84210D24FF081
S315000009000006E769FE52D4F820C094F82DE03CF8C2
S315000009100370BE4529D84E8005E001372EF80370D6
S315000009204F88012F86D0A2F12007C2F1200CE6687D
S3150000093029FA0CFC09FA07F747EA0C0726EA070723
S31500000940A668E76009FA02F726EA0707A76091F8A2
S3150000095000E091F801C083E700264FF000074EF84B
S315000009602C60A66A26F81C705CE601372CF803702A
S31500000970D6E7D4F81CE03EF803C0674533D84FF0FD
S3150000098000062EF803604E80A769F852C8E70022D9
S31500000990C255DCF81C20526892F824204254002AE2
S315000009A03FF4B1AEDFF858E05F1CBEF80010BFB2EE
S315000009B05FFA81F8012A4FEA112100F80380C15538
S315000009C00DD0BEF80210DF1C03F1020E5FFA81F8AB
S315000009D01FFA8EFEBFB2090A00F80E80C15503EB5E
S315000009E0420293B28FE60CF1010C2EF803C097E792
S315000009F00321042302274FF0010E48E60B46DBE6EF
S31500000A00980200200022034610461A60704700BF75
S31500000A100120CBB2984080B202B900040B0A5B01F8
S31500000A2003F1804303F5002398600020704700BF60
S31500000A302DE9F84F0388DBB182464FF0000B4FF0EB
S31500000A400109DFF8D0800024304D4FEACB07DAF8F1
S31500000A50043035F8022BD919898891420AD001341D
S31500000A60032CF4D1BAF800300BF1010B5B45EAD840
S31500000A70BDE8F88FDB5909FA04F603F0B853B3F171
S31500000A80807FF6B298F8BB3413D0334231D1204A76
S31500000A9004F1200612F81630DB09E0D012F8163001
S31500000AA0012123F08003C82002F8163001F086F9F0
S31500000AB0D5E7334211D0164A04F1200112F811305D
S31500000AC0DB09CCD112F81130C82043F0800302F8BC
S31500000AD01130012101F072F9C1E7012001F03AFA63
S31500000AE098F8BB340120334388F8BB3401F002FA8E
S31500000AF0E1E7012001F02EFA98F8BB34012023EA41
S31500000B00060388F8BB3401F0F5F9C0E72C23000092
S31500000B100030084000E00140F8B50646FFF788FFC0
S31500000B20EFF31082012383F31088234F3B681BB930
S31500000B302249CB704023CB703B6801333B6082F384
S31500000B401088338823B300211D4D08E01B01134490
S31500000B5045F82340328801318BB29A4218D973681E
S31500000B6053F8314003EBC1029288E0034FEA1223A7
S31500000B70D2B2EBD502EB031055F820E024F4803C0A
S31500000B802EF4803E45F820E01B0145F820C0DEE744
S31500000B90EFF31082012383F310883B6813B13B689F
S31500000BA0013B3B603B681BB980200449CB70C87091
S31500000BB082F31088F8BD00BF34030020000D084002
S31500000BC00008084008B5034B03600846FFF7A4FF7A
S31500000BD0002008BD54524F5008B50846FFF79CFF49
S31500000BE0002008BD844630B482B0019100921D49B0
S31500000BF090F904201C4D51F82200C03255F82210FD
S31500000C001A4C21F0807145F822109CF9041041F429
S31500000C100041E28992B29142FBD008222274019AE5
S31500000C200AB1019A4260009A0AB1009A8260C278BB
S31500000C3002F0C001802913D03F2A98BFC381182231
S31500000C4000200A4B08491A749CF90430C03351F845
S31500000C50232042F0807241F8232002B030BC704756
S31500000C608381ECE700000020006000400054004053
S31500000C700620704706207047034693F9043005495D
S31500000C80C03351F82320002042F0807241F823201F
S31500000C90704700BF00600040034693F904300549E1
S31500000CA0C03351F82320002022F0807241F823201F
S31500000CB0704700BF00600040002290F90400124B0C
S31500000CC053F82030C1E90022DA783F2A0CD94FF4D4
S31500000CD080728A60DA89D2B2CA60DA7802F0C0021B
S31500000CE0802A09D0002070474FF480328A60DB8961
S31500000CF000209BB2CB6070474FF480320A609B891C
S31500000D0000209BB24B607047000000200620704711
S31500000D10062070470346002230B593F904C0074CFD
S31500000D200CF1C00E54F82E10054D21F0807144F8D8
S31500000D302E1045F82C201A60104630BD0060004089
S31500000D400000002030B5864690F904301C4DC033B3
S31500000D5055F823201B4C22F0807245F8232090F989
S31500000D60042042F40042E3899BB29A42FBD00B4630
S31500000D70DA789C463F2A05D9DA89D2B202EB0222FA
S31500000D8092B2DA819CF8022010333F2AF0D84FF055
S31500000D90080C18220B4B0C4D83F810C09EF904C0AA
S31500000DA0074C45F82C101A749EF904300020C03305
S31500000DB054F8232042F0807244F8232030BD00BF4F
S31500000DC0006000400054004000000020F8B5274AAB
S31500000DD0044613780D4643B36B6893F90030002B35
S31500000DE040DB234850F82320002A3DD123712D688B
S31500000DF0BDB12B46DA7819463F2A05D9DA89D2B22F
S31500000E0002EB022292B2DA818A7810333F2AF1D8B5
S31500000E1008211822174B197494F9041040F8215030
S31500000E201A74154B00202360F8BD01261670EFF3E7
S31500000E30108086F31088114A116821F48001116030
S31500000E40126880F310880A4F19464FF4C07238466C
S31500000E5001F074F9074B5F611E736B6893F90030FC
S31500000E60002BBEDA0B20F8BD0820F8BD9C0200203E
S31500000E700000002000540040004354440040084055
S31500000E800379022B06D0836E1B7C012B14BF052031
S31500000E900020704741F27070704700BF8446002002
S31500000EA0CCE91E32CCF87010704700BF70B503262F
S31500000EB040F20333826EB0F808E0126B104C5168B2
S31500000EC094F800C009680F4DCE81A1F80CE0B1F886
S31500000ED002E0BCF1010F03EA0E0343F4184343F0AA
S31500000EE008034B80036A4B608D6003D10234A1F87E
S31500000EF00CC04C60936810685B68BDE8704018478A
S31500000F00A802002012000D4070B5022640F20333FD
S31500000F10826EB0F808E0526B104C516894F800C02D
S31500000F2009680F4DCE81A1F80CE0B1F802E0BCF1E2
S31500000F30010F03EA0E0343F4184343F018034B80F2
S31500000F40436A4D608B6003D10834A1F80CC08C60F5
S31500000F50936810685B68BDE870401847A8020020D7
S31500000F6018000D4010B5437904461BB92D4B1A786D
S31500000F70920743D52379032B50D094F96C202A4B42
S31500000F80204643F8224094F96D2043F8224094F914
S31500000F906E2043F82240FFF789FF00B110BD2046BE
S31500000FA0FFF7B2FF0028F9D163796BBB1D4A1378AE
S31500000FB003F0F9031370A379212B17D0194B227F65
S31500000FC0597822F0370201F037010A435A7019782E
S31500000FD094F8542001F07F0122F07F020A431A7030
S31500000FE094F856209A7194F85720DA7102230D4A24
S31500000FF02371137843F00103137010BD1B78DB07D0
S31500001000B8D541F2707010BD064B1A7842F0060250
S315000010101A701A7802F0FE021A70CCE741F271706B
S3150000102010BD00BF00000D40380300200389002BCF
S3150000103000F0A08000212DE9F04F8C4601240B46DC
S315000010408E460F464D4E4E4D4DE08279012A026A7C
S315000010506244B2F8029016D1B2F804804FEA99279A
S315000010600137C8F3042808FB0778B0F8847007FB3B
S3150000107008F8EF69B8FBF7F8076B1FFA88F80F4412
S315000010807F88A7EB0807002FC9F3090836DDD0F8DB
S3150000109014A05AF801B08A44BBF1000F51DB40F2AC
S315000010A0FF3BD8453BD008F10108CAF800701FFA8B
S315000010B088F8026A6244B2F8029009EA0609A2F8C0
S315000010C00290026A6244B2F8029048EA0908A2F85D
S315000010D00280028901331FFA83F842450CF1060C9F
S315000010E001F1040134D9026912F803801A44B8F1F7
S315000010F0000FAAD00EF1010E1470EAE70FD0D0F857
S3150000110014A05AF801B08A44BBF1000F24DDC7F1E0
S31500001110000AD34503DA08F1FF381FFA88F809EA0E
S315000011200609A2F80290026A0EF1010E6244B2F8B4
S31500001130029048EA0908A2F8028002691A4414706B
S31500001140C7E7C7F1000AD345E9DA08F10108E6E77F
S3150000115072450BD0BDE8F08FB8F1000FDFD008F173
S31500001160FF38CAF800701FFA88F8A2E70123C37196
S31500001170BDE8F08F0123C371704700BF00FCFFFF7D
S31500001180A80200202DE9F04F058983B0002D40D03C
S315000011900022DFF8E480134605E0013399B28D4260
S315000011A002F1060235D9066A817916440129748846
S315000011B0B6F804A0F1D1056B466A98F800B036F887
S315000011C023E055F82360BBF1020FD0F82890019672
S315000011D04FEA430C05EB83071ED029F813E0816A1A
S315000011E031F80C107980048B0904012C0AD9019E70
S315000011F0B1FBF4F1B6FBF4F4361B31449C002953E1
S31500001200090C79800589013399B28D4202F10602F3
S31500001210C9D803B0BDE8F08FD8F81C60A40ACAF399
S31500001220042A01340AFB044406FB0EFABAFBF4F462
S31500001230B8F80EB0B8F810A0ABEB0A0A1FFA8AFA93
S31500001240ABEB040BD8E90564341B06FB0AF604FB7A
S315000012501B6494FBFAF44FF6FF7BA4B20EFB04F476
S31500001260002C4FEAD43EB6BF29F80CB029F80CE0A2
S3150000127088F80C10B3E700BFA802002008B5037970
S31500001280022B34D0C379012B07D000220379C27117
S31500001290032B17D041F2727008BD0389002BF4D0DE
S315000012A000231A460169CA54416941F82320B0F85F
S315000012B008C0013399B28C45F4D800220379C27173
S315000012C0032BE7D1836E1B7C5BB1837903F0FD03AF
S315000012D0012B0FD0C27901239A420371DAD1002083
S315000012E008BDFFF74FFFC279002AF4D1EDE741F2BE
S315000012F0707008BDFFF79AFEECE700BF41F271730C
S315000013000279032A0CBF1846002070470379022B86
S315000013102ED11849184B0A7882F011020A70826E93
S3150000132092F93C20C03253F8221021F4803143F860
S31500001330221053F82220826E92F93D20C03253F8D3
S31500001340221021F4803143F8221053F82220826EB5
S3150000135092F93E20C03253F8221021F4803143F82E
S31500001360221053F82230012200230271C0F80A30FD
S315000013700020704700000D40006000400379022BFA
S3150000138030D0C3795BB3032A2FD022B98379012BDE
S3150000139016D000207047012AFBD18379012BF8D1A2
S315000013A00389002BF5D00023826A32F8132001331B
S315000013B021F8022BB0F808C09AB29445F4D8E8E7B1
S315000013C00389002BE5D0436A33F82230013221F835
S315000013D0023BB0F808C093B29C45F4D8D9E741F275
S315000013E07270704741F2707070471320704700BFEB
S315000013F00379022B1ED0C379CBB1837903F00303A3
S31500001400012B01D0002070470389002BFAD000235E
S31500001410026B31F802CB02EB8302A2F802C0B0F8ED
S3150000142008C001339AB29445F2D80020704741F2C1
S315000014307270704741F27070704700BF00282ED05E
S3150000144010B5184B026804469A4210D11649007A24
S315000014500B88A2791B1A02F00302DBB2012A0B8069
S3150000146007D06BB1002000232371236010BD072035
S3150000147010BD0E490A88121AD2B20A80002BF1D189
S31500001480A36E1B6B9A681868136A98470028EAD1FE
S31500001490A36E5B6B9A681868136A9847E3E70120A6
S315000014A0704700BF55535443FA020020E002002063
S315000014B038B50379022B45D0836E04461B7C002B7E
S315000014C03ED103790D46032B08D0238BC3B1A379F4
S315000014D003F00303012B16D0002038BDC379012B7E
S315000014E022D02046FFF74EFEE37923B9A37903F015
S315000014F0FD03012B21D001232371238B002BE6D181
S3150000150041F2727038BD2389002BE5D00023226B8F
S3150000151002EB83025288013325F8022B21899AB205
S315000015209142F4D80020D8E7038B428B9342D8D05F
S315000015303ABF013303830283D3E7FFF777FDDAE788
S31500001540052038BD41F2707038BD00BF2DE9F04767
S31500001550202500264FF0020804468A46DFF8409010
S315000015600E4F2046FFF7A2FC10B92046FFF7CCFC31
S3150000157084F804803B7843F001033B702379032B06
S31500001580FCD1B9F80830013DADB216FA83F6002D4C
S31500001590E7D17609AAF80060BDE8F08700000D40A3
S315000015A0A80200202DE9F047AB4B026882B09A42B0
S315000015B000F0C1814B79044603F00303012B0D466D
S315000015C000F022810023A56623716B7903F00303E3
S315000015D0012B00F025812089C2B200239F4FA04E27
S315000015E039880A44D2B2A4F8642006EB81063A8010
S315000015F09C4A66619C4E0A4401EB410106EB41019F
S315000016002261216229786171E98C2383618395F8CF
S31500001610281081F00101E171E978C900C9B221778A
S315000016206E7941EA86112177697884F85410A97891
S3150000163084F85510E97C84F85610297D84F85710F3
S31500001640697D84F85810A97D84F85910E97D84F8DD
S315000016505A10297E84F85B10697E84F85C10A97E96
S3150000166084F85D10E97E84F85E10297F84F85F10A7
S315000016706979A17148B342F20F0C19461E4600E083
S3150000168022695654626942F821602A6A206A12F871
S3150000169003E01A444FEA0E2E20F803E092F8048085
S315000016A0B2F802E0206A4EEA882E1844A0F802E05A
S315000016B0206A527918444CEA02228280208901313C
S315000016C08AB2904203F10603DAD84FF0C00C95F9BE
S315000016D03C30664984F86C3095F93D30644884F8AE
S315000016E06D3095F93E30634A84F86E3095F93C309A
S315000016F0CE1886F800C340F8234003EB0C0652F8D8
S3150000170026E02EF4803E42F826E052F82660BFF32B
S315000017105F8F01264FEA531E4FEA8E0E03F01F031A
S315000017200EF1604E0EF5614E06FA03F3CEF88031E7
S31500001730CEF8003095F93D3001EB030E8EF800C36C
S3150000174040F8234003EB0C0E52F82E8028F4803824
S3150000175042F82E8052F82EE0BFF35F8F4FEA531EF9
S315000017604FEA8E0E03F01F030EF1604E06FA03F3E6
S315000017700EF5614ECEF88031CEF8003095F93E3048
S31500001780194481F800C340F8234003EB0C0152F8DA
S31500001790210020F4803042F8210052F82120BFF3C6
S315000017A05F8F5A09920003F01F0302F1604206FAA6
S315000017B003F302F56142C2F8803113604FF000086E
S315000017C03B88228984F874809A4261D02A4E00238D
S315000017D001212665C4F80A302171E96A1E4A21678B
S315000017E0296C84F88030C4E91E31A4F88230B5F83B
S315000017F04830A4F88430B5F84A302260A4F8863020
S31500001800404602B0BDE8F0871C4A91F824301288A1
S315000018101344DBB2022B7FF6D5AE4FF00308EFE799
S315000018201649174A0B8802EB83026262154A02EBDD
S315000018304302A262144A02EB4302E262134A02EB3B
S315000018408302226395F824201344DBB210460B80F2
S315000018502281A4F86030C0E655535443FA020020B2
S31500001860F0020020F8020020E402002000E100E07F
S315000018703803002000600040A8020020E00200209B
S31500001880D8020020D4020020D0020020C802002086
S315000018900423694F69496A483B60FFF793F931466B
S315000018A00A2000F08BFA674B644965483B60FFF7F6
S315000018B093F96348FFF7A6F8EFF3108186F31088D3
S315000018C0614B9A6822F008029A609B6881F310883F
S315000018D06E46A36E1B6B5A6892E8030086E8030007
S315000018E09A68CDF800803146074612681868904716
S315000018F0804678B9A36E00975B6B5A6892E803003E
S3150000190086E803009A68CDF80080186831461368A7
S3150000191098478046032123224C4B4D4E59709A70AE
S31500001920302110221974DA70327852B1474A53784E
S31500001930DBB253704BE74FF00E08404602B0BDE8ED
S31500001940F08701223270434A434F116A434AC1F37A
S3150000195002601268C1F302218240CA404049BA427D
S31500001960A1FB02014FEA914056D9A0F121021F2A9C
S315000019705AD8CA0C5978013A41F01001597042F20E
S315000019800F034FF001094FF4E0614FF0020A2F4FA9
S31500001990F06143EA02237A784FF4FA7042F040028B
S315000019A07A7087F80690C6F80210F380BB8B49461A
S315000019B06AF30103BB83BB8B43F08003BB8300F058
S315000019C0FDF920462749FFF7C1FDF388204643F479
S315000019D0C0432549F380FFF7B9FDBB8B4FF4FA707E
S315000019E023F08003BB83BB8B494623F00303BB83F1
S315000019F000F0E4F9F389A3B1328A92B1934210D987
S31500001A004FF0A041B1FBF3F37361184B86F800A0C9
S31500001A10B3FBF2F3B36189E75A78D2B25A70421E29
S31500001A20ADE70323337081E70A0D5978013A41F097
S31500001A3020015970A3E700BFA00100208C230000FD
S31500001A40A00200200000010C0040084000000D40EC
S31500001A50A802002000E001403F8AF701C0040020F0
S31500001A6083DE1B43B6020020B80200200000CC2E05
S31500001A70EFF30383103B064A5BB2C03352F82310E0
S31500001A8021F4803142F8231052F82330704700BF0A
S31500001A9000600040EFF30383103B064A5BB2C0339D
S31500001AA052F8231021F4803142F8231052F82330E3
S31500001AB0704700BF0060004030B5836F83B00446B6
S31500001AC06D46002B38D093E8030085E8030000211B
S31500001AD01A4A1970517C880605D501211970517C66
S31500001AE001F0DF015174154A918B09040DD5517827
S31500001AF001F0FE01517000BF00BF517841F00101B5
S31500001B0051701A7842F002021A7003219DF80020E3
S31500001B10217184F87520E26F5A60226F0AB1184667
S31500001B209047A36F1BB195E8030083E803000023E9
S31500001B30C4F80A3003B030BD2B46C8E700000D409C
S31500001B40EFF30383154A103B5BB252F82300EFF321
S31500001B500383103B124A5BB2C03352F8231021F4C0
S31500001B60803142F8231052F8233082798389032A80
S31500001B7006D042899A420FD0012380F8743070470C
S31500001B8090F88020002AF4D0027FD20908BFB0F86E
S31500001B90823042899A42EFD1FFF78EBF3803002088
S31500001BA000600040064B074993F826001A6A51F870
S31500001BB02030C2F302620449D3400B60704700BF75
S31500001BC000E00140B0010020C0040020704700BFC3
S31500001BD04AF2035001233F493F4A2DE9F041A1F85B
S31500001BE0FE03A2F80431B2F804319BB2002BFAD1FD
S31500001BF001274FF4004120250920384CDFF8F4C0B6
S31500001C00374EC4F804C0DFF8F0C0324BC4F80CC03D
S31500001C10A2F80071334A2660A1602161626193F8DF
S31500001C202620196A54F822202F4EC1F30261CA40B9
S31500001C30326083F8135483F8A20093F880241AB90B
S31500001C4093F881349A073FD0224D95F8803483B3B8
S31500001C500022204B83F8812483F8802400231D4A28
S31500001C6082F8323092F83C301B07FBD50025032161
S31500001C7043F20218F1274FF0F00E4FF4254C1B48A3
S31500001C80A2F8288082F82A50106282F8261092F86C
S31500001C902610106A54F82110154BC0F30260C1409B
S31500001CA031601F731D7283F80CE0A2F8FEC3BDE815
S31500001CB0F0810121C82085F8801400F07FF895F89E
S31500001CC08034012BFBD1C3E74FF47A70FFF77EFF18
S31500001CD0C4E700BF00E0014000C00140B0010020A1
S31500001CE0002D310100E1F505C0040020211202118A
S31500001CF00020004000127A00001BB70038B500250E
S31500001D00284C0121C82084F8285000F057F884F8A0
S31500001D10245094F82430002BFBD194F82430214928
S31500001D2043F0020384F8243091F82430C3F34000D2
S31500001D309B07F9D41B4A81F8220092F8223003F05F
S31500001D40FF00002BF9D192F84030164960F3C71313
S31500001D5082F8403091F84030DB09FBD191F842001F
S31500001D60104A63F3C71081F8420092F84230DB094B
S31500001D70FBD192F844000B4963F3C71082F8440084
S31500001D8091F84430C3F3C014DB09F9D1012000F007
S31500001D90E1F8054B012083F8BB44BDE8384000F06C
S31500001DA0A9B800BF0030084000E00140704700BFFE
S31500001DB0A0F101000028FBD1704700BF4FF47A73F1
S31500001DC010B400FB01F1114C114A2468B2FBF4F285
S31500001DD0A1FB03043CB9B0FBF2F0800860B15DF8EA
S31500001DE0044BFFF7E5BF9200B1FBF2F1A1FB031331
S31500001DF02BB908460028F2D15DF8044B70474FF026
S31500001E00FF3C5DF8044B6046FFF7D2BFC0040020DC
S31500001E1000CA9A3B70B500240B4B0C4EB3F8202138
S31500001E20B3F84051ADB2154025FA04F3DB0704D5EB
S31500001E3056F82430E0B203B1984701340E2CF3D1A2
S31500001E40014BA3F8305170BD00600040FC02002039
S31500001E5030B5032085B000F07DF86FF0FF054FF038
S31500001E60FF31204C002322464FF0010E1E488564A8
S31500001E70CDE90111039104F1C00532F8020F5909A9
S31500001E8060B104A800EB810151F80C0C03F01F0CA3
S31500001E900EFA0CFC20EA0C0041F80C0C954203F1FA
S31500001EA00103EAD10199114B0F4A03201167C3F8C8
S31500001EB0801202995167C3F8841203999167C3F897
S31500001EC0881200F017F80023094834F8022F03F1AE
S31500001ED0C00101330AB140F82120A542F5D105B071
S31500001EE030BD00BF422200000080004000E100E05B
S31500001EF000600040EFF31081012383F31088124B3A
S31500001F0033F8102092B22AB133F81020013A92B277
S31500001F1023F8102033F810309BB293B910B40B4A53
S31500001F200B4CB2F8FE3334F810009BB243F4254351
S31500001F3023EA0003A2F8FE3381F310885DF8044B10
S31500001F40704781F310887047B804002000E0014014
S31500001F509823000030B4EFF31081012383F3108837
S31500001F600E4A32F810309BB26BB90D4C0D4DB4F8D9
S31500001F70FE3335F810C09BB243EA0C0343F4254305
S31500001F809BB2A4F8FE3332F8103001339BB222F82C
S31500001F90103081F3108830BC704700BFB8040020B1
S31500001FA000E001409823000000BE704708B500F02D
S31500001FB003F8FEF75BF9FEE74FF4700270B52B4BA2
S31500001FC02B4CC3F8882000209C60FEF743F9FFF7EE
S31500001FD0FFFD0120FEF73EF92368A3F5806383F336
S31500001FE00A882448244A0021121A00F0A7F8234838
S31500001FF0234A2449121A00F0A9F8234D234B5B1BF0
S31500002000002B07DD00249E1055F8043B0134984749
S31500002010A642F9DCFFF7C6FDFFF770FE0320FFF7C7
S3150000202099FF4FF6FF720024194B03201A825A8239
S315000020309A82DA821A835A839A83DA83FFF75AFFDF
S315000020400320FFF787FF134B03205C609C60DC6076
S315000020501C61FFF74FFF0220FEF7FCF8FFF7F8FEC2
S315000020602046BDE87040FFF7A1BE00BF00ED00E0CE
S3150000207000000000D0010020E805002080010020BB
S31500002080B001002054240000A8010020AC0100206B
S31500002090000D084000000E400121034A034B117059
S315000020A002781A70704700BFDD050020DC050020AD
S315000020B01E4B2DE9F041D3E900512846FEF7DCF826
S315000020C098BB074628461A4C1A4EDFF86C80FEF776
S315000020D095F948BB2378002BFCD0002331462846CF
S315000020E01A462770FEF75EFAA0B9326840F203116D
S315000020F012F0010218BF01224046FEF789FC336840
S315000021004FF4827103F002029B0748BF012240464A
S31500002110FEF77EFC14204FF47A71FFF74FFE284637
S31500002120FEF76CF90028D5D0FEE7FEE7A0230000F5
S31500002130DD050020E0050020EC01002002440346F6
S31500002140934200D1704703F8011BF9E70A44431E86
S31500002150914200D1704710B511F8014B914203F836
S31500002160014FF9D110BDFFFF4275696C7420776984
S3150000217074682052656E6573617320416476616E82
S3150000218063656420466C657869626C6520536F668A
S315000021907477617265205061636B6167652076654F
S315000021A07273696F6E20352E382E3000352E382E1C
S315000021B03000000000000805F8B500BFF8BC08BCF8
S315000021C09E467047F8B500BFF8BC08BC9E467047EF
S315000021D0F4010020DC2100003423000080010020EF
S315000021E0E421000000FFFFFFFC010020F4210000B5
S315000021F03423000090010020FC21000001FFFFFFB6
S31500002200070000000C22000000000000040000008F
S3150000221003010000040000000401000000000100AA
S31500002220080100000000010C060200000000010C7D
S315000022300702000000000100000300000000010C7E
S31500002240090400009A009B009C00000000000000AA
S315000022500000000000000000000000000000000078
S315000022600000000000000000000000000000000068
S315000022700000000000000000000000000000000058
S315000022800000000000000000000000000000000048
S315000022900000000000000000000000000000000038
S315000022A00000000000000000000000000000000028
S315000022B00000000000000000000000000000000018
S315000022C00000000000000000000000000000000008
S315000022D000000000000000000000000000000000F8
S315000022E000000000000000000000000000000000E8
S315000022F000000000000000000000000000000000D8
S315000023000000000079020000FD030000A5050000A2
S3150000231049050000110400001504000069050000CD
S3150000232029040000AD040000410500000204030476
S315000023300404FFFFCD0D0000450D0000E50B000075
S31500002340790C0000990C0000710C0000750C00005F
S31500002350B90C0000150D00000D0D0000110D000058
S31500002360A5150000650F0000B11400000D13000054
S31500002370FD1200009D0E00003D1400007D130000BC
S31500002380F1130000810E00007D1200000100000024
S31500002390A00100200000000001000200080010005B
S315000023A0C8040020AC23000004230000D82300004A
S315000023B00000000000000000000000000200000312
S315000023C00300FF0000000000E423000000000000FE
S315000023D0000000000000000000006C4DDF0301005B
S315000023E0D7500A0450050020F023000060230000A7
S315000023F000000000000100000000000000000000D6
S3150000240000000024000000000000000000000000A2
S31500002410442400000200040001000000992000008E
S31500002420D0210000E82100000000000000010200A9
S315000024300000000000000000003C00280000000032
S315000024400000000005005200010105006E000101B8
S309000024500000000082
S31500002454000010180000000000000000000000004A
S31500002464000008100000000000000000000000004A
S3150000247400000000070200002D0200000502000013
S3150100A100FFFFFFFFFFFFFFFFFFFFFFFFFFFFFFFF58
S3090100A134FFFFFFFF24
S3150100A200FFFDFFFFFFFFFFFFFFFFFFFFFFFFFFFF59
S3150100A210FFFFFFFFFFFFFFFFFFFFFFFFFFFFFFFF47
S3150100A220FFFFFFFFFFFFFFFFFFFFFFFFFFFFFFFF37
S3150100A230FFFFFFFFFFFFFFFFFFFFFFFFFFFFFFFF27
S3150100A240FFFFFFFFFFFFFFFFFFFFFFFFFFFFFFFF17
S3150100A250FFFFFFFFFFFFFFFFFFFFFFFFFFFFFFFF07
S3150100A260FFFFFFFFFFFFFFFFFFFFFFFFFFFFFFFFF7
S3150100A270FFFFFFFFFFFFFFFFFFFFFFFFFFFFFFFFE7
S3150100A280F8F8FFFFFFFFFFFFFFFFFFFFFFFFFFFFE5
S3150100A290FFFFFFFFFFFFFFFFFFFFFFFFFFFFFFFFC7
S3150100A2A0FFFFFFFFFFFFFFFFFFFFFFFFFFFFFFFFB7
S3150100A2B0FFFFFFFFFFFFFFFFFFFFFFFFFFFFFFFFA7
S3150100A2C0FFFFFFFFFFFFFFFFFFFFFFFFFFFFFFFF97
S70500001FAD2E
