:1000000068290020350F00005D0D0000310F000051
:10001000310F0000310F0000310F0000310F0000E0
:10002000000000000000000000000000310F000090
:10003000310F000000000000310F0000310F000000
:1000400065080000D9070000F50800003D09000020
:1000500000000000000000000000000000000000A0
:100060000000000000000000000000000000000090
:100070000000000000000000000000000000000080
:100080000000000000000000000000000000000070
:100090000000000000000000000000000000000060
:1000A0000000000000000000000000000000000050
:1000B0000000000000000000000000000000000040
:1000C0000000000000000000000000000000000030
:1000D0000000000000000000000000000000000020
:1000E0000000000000000000000000000000000010
:1000F0000000000000000000000000000000000000
:1001000000000000000000000000000000000000EF
:1001100000000000000000000000000000000000DF
:1001200000000000000000000000000000000000CF
:1001300000000000000000000000000000000000BF
:1001400000000000000000000000000000000000AF
:10015000000000000000000000000000000000009F
:10016000000000000000000000000000000000008F
:10017000000000000000000000000000000000007F
:10018000000000000000000000000000000000006F
:10019000000000000000000000000000000000005F
:1001A000000000000000000000000000000000004F
:1001B000000000000000000000000000000000003F
:1001C0000348044B834202D0034B03B118477047E6
:1001D000D4010020D401002000000000064B074994
:1001E000C91A891048BF0131491003D0044B0BB123
:1001F00001481847704700BFD4010020D4010020F7
:100200000000000010B5064C237843B9FFF7D8FF73
:10021000044B13B10448AFF300800123237010BDD9
:10022000F0010020000000006C42000008B5054B02
:100230001BB105490548AFF30080BDE80840FFF752
:10024000CDBF00BF00000000F40100206C420000A0
:100250000379022B02D10122014B1A70704700BFB3
:100260000C0200202DE9F047B2F1000982B019DD3F
:100270008A460025DFF83C800C4C0D4F01EB090647
:100280001AF9013B0122384601A9019300F07CF8DC
:10029000C8F8000000B100BE2378002BFCD0564502
:1002A0002570EDD1484602B0BDE8F0870C02002071
:1002B0001C0200201002002008B52149214800F04E
:1002C000ADF8214B186028B13421204B204A214839
:1002D00000F010FD204801F0F5FA204C204801F014
:1002E000F1FA01220221204600F064FB012240F2D3
:1002F0000311204600F05EFB01224FF4827120467C
:1003000000F058FB4FF47A714FF4FA7000F0FAFCE9
:1003100000220221204600F04DFB002240F2031192
:10032000204600F047FB00224FF48271204600F087
:1003300041FB4FF47A714FF4FA7000F0E3FCCDE723
:100340001C3E00001C02002010020020C83D0000DE
:10035000103E0000DC3D0000F03D000014020020D3
:10036000003E0000022800D070470249024800F019
:10037000D5BB00BF503E00001402002008B5FFF7B7
:100380009BFF002008BD00BF10B4046AA37803F0EF
:100390007B03A3708378046A03F00303D21A0B442F
:1003A000C0E90332A37843F08003A370837803F09D
:1003B0000303022B06D0036A0A780020DA705DF886
:1003C000044B70470B88026A43F47E43D3810020BC
:1003D0005DF8044B704700BFF0B5846A85B00546F0
:1003E0000F4694466E46B4B194E80F0086E80F00BD
:1003F000EB6920461B78A760236084F804C0EB6A91
:10040000E3606B6A9847AC6A1CB196E80F0084E819
:100410000F0005B0F0BD3446EAE700BF01220346F5
:100420000878824012F0060F05D0CA695268127827
:10043000120700F1CF8100222DE9F041012500F5DE
:10044000800000F58C500002C3E907101A704E6955
:1004500098785E628E6965F30100C3E90A26987098
:100460004878D34C904214BF2E460226987866F303
:100470000100987091F90BC091F80AE04FEA5C1006
:100480000CF01F06203005FA06F644F82060BFF392
:100490004F8FBFF36F8FC7480CF1C00650F826701E
:1004A00062F3104740F8267050F82660C24E4FEABB
:1004B0000E1E04EB0C075FFA8EFE87F800E346F889
:1004C0002C3091F905C091F804E04FEA5C170CF06C
:1004D0001F08203705FA08F844F82780BFF34F8F2C
:1004E000BFF36F8F0CF1C00750F8278062F31048FC
:1004F00040F8278050F827704FEA0E1E04EB0C07D7
:100500005FFA8EFE87F800E346F82C3091F907C0B9
:1005100091F806E04FEA5C170CF01F08203705FA47
:1005200008F844F82780BFF34F8FBFF36F8F0CF1AB
:10053000C00750F8278062F3104840F8278050F831
:1005400027704FEA0E1E04EB0C075FFA8EFE87F849
:1005500000E346F82C3091F909C091F808E04FEA21
:100560005C170CF01F08203705FA08F844F82780BC
:10057000BFF34F8FBFF36F8F0CF1C00750F8278088
:1005800062F3104840F8278050F827004FEA0E1019
:10059000C0B2644484F8000346F82C30EFF31086B0
:1005A00085F310884FF000450C788448E540446896
:1005B00024EA05044460406886F3108840F219205C
:1005C0001C6AA2701C6A22711C6A62721C6AA27286
:1005D0001C6AE2721C6A62830A7820FA02F2D0076F
:1005E00002D540201A6AD074062440F21922186AF3
:1005F00004770878C240D20700F1CA80CA784878E8
:100600008C78D200032842EA041200F0DF80002830
:100610000CBFE220F2201C6AD2B222701A6A9071DA
:10062000CC69227B082A00F0CD80186A520002F0C3
:100630000202427300256278A078D201400100F0E6
:100640002000D2B20243186A0572207802380128CD
:10065000186A40F2A280D2B2C27160681A6A8478C5
:1006600054704578147865F301041470C478947458
:10067000D479007804F0A30400F05C002043D0712A
:100680000020C3E90300C3E90500DC69494A94F985
:100690000540CD6904F1C00152F8216095F800C011
:1006A00060F3104642F821600CF0030C52F8211060
:1006B000BFF35F8F4FF0010E6109890004F01F0442
:1006C00001F1604101F561410EFA04F4C1F8804185
:1006D0000C60D96991F90B4004F1C00152F8216016
:1006E00060F3104642F8216052F82110BFF35F8F8B
:1006F0006109890004F01F0401F160410EFA04F45D
:1007000001F56141C1F880410C60D96991F9074058
:1007100004F1C00152F8216060F3104642F82160F4
:1007200052F82110BFF35F8F6109890004F01F04A4
:1007300001F160410EFA04F401F56141C1F8804114
:100740000C60D96991F9091001F1C00452F82460D4
:1007500060F3104642F8246052F82420BFF35F8F04
:100760004A09920001F01F0102F160420EFA01F104
:1007700002F56142C2F8801111601A6A4CF0700CE7
:1007800082F802C069890E4A19815A60BDE8F08179
:100790004FF478401A6A908230E7FF254570207840
:1007A000022808BF42F01002186AD2B2C27167E78D
:1007B00000E100E0006000408802002000400840A6
:1007C000554943530A201A6A507333E7F22042F026
:1007D000400220E703207047EFF30383103B1F4ADA
:1007E0005BB203F1C00152F8210020F4803042F8DE
:1007F000210052F821201A4A52F82300C3691B69CC
:1008000083B1036903B17047026A0021937803F052
:100810007F0343F004039370436AC160C3B1802235
:10082000FFF7DABD0369026A002BEED08378C16856
:1008300003F00303022B0CD00B78D3708278D0E93D
:10084000031302F003029B1A1144C0E90313D9E712
:1008500070470B8843F47E43D381EFE7006000408C
:100860008802002010B582B0EFF30383103B1F4ACB
:100870005BB203F1C00152F8210020F4803042F84D
:10088000210052F821201A4A52F82340A27802F09F
:100890000303022B236A0CBF198A5979A3690CBF81
:1008A000C1F30801C9B2019143B9636AB3B104222B
:1008B000204602B0BDE81040FFF78EBD02F00302F3
:1008C00001A9606901F039F9D4E90521A37803F0A1
:1008D00003031A44C91AC4E9052109B102B010BDC5
:1008E000636A002BFAD00122E2E700BF00600040FB
:1008F0008802002010B5EFF303830E4A103B5CB270
:1009000052F82400026A937803F07B039370436AE1
:100910001BB102220021FFF75FFD074A04F1C0036B
:1009200052F8231021F4803142F8231052F823307A
:1009300010BD00BF880200200060004010B5EFF33A
:1009400003831A4A103B5CB252F82400837803F008
:100950000303022B036A0CBF198A597993F804C068
:100960000CBFC1F30801C9B21CF0100F0CF0380223
:1009700006D093F81CC01CF0010F08BF42F04002E3
:1009800093F804C00CF0C70C83F804C0436A0BB1A1
:10099000FFF722FD064A04F1C00352F8231021F4A8
:1009A000803142F8231052F8233010BD8802002015
:1009B000006000400120CBB2984080B202B9000430
:1009C0000B0A5B0103F1804303F5002398600020CC
:1009D000704700BF2DE9F84F0388DBB180464FF028
:1009E00000094FF0010BDFF884A000241E4D4FEAF0
:1009F000C907D8F8043035F8022BD91989889142F3
:100A00000AD00134032CF4D1B8F8003009F10109FF
:100A10004B45EAD8BDE8F88FDB590BFA04F603F032
:100A2000B853B3F1807FF6B29AF8BB340ED033429C
:100A3000E7D0012000F032FA9AF8BB34012023EA13
:100A400006038AF8BB3400F0F9F9DAE73342D8D16B
:100A5000012000F023FA9AF8BB34012033438AF8CE
:100A6000BB3400F0EBF9CCE7543F000000E001405C
:100A7000F8B50646FFF7AEFFEFF31082012383F3CC
:100A80001088234F3B681BB92249CB704023CB70A1
:100A90003B6801333B6082F31088338823B3002125
:100AA0001D4D08E01B01134445F8234032880131F5
:100AB0008BB29A4218D9736853F8314003EBC102E4
:100AC0009288E0034FEA1223D2B2EBD502EB031077
:100AD00055F820E024F4803C2EF4803E45F820E0D8
:100AE0001B0145F820C0DEE7EFF31082012383F3FA
:100AF00010883B6813B13B68013B3B603B681BB906
:100B000080200449CB70C87082F31088F8BD00BF04
:100B100084020020000D08400008084008B5034B7F
:100B200003600846FFF7A4FF002008BD54524F5051
:100B3000064B074993F826001A6A51F82030C2F391
:100B400002620449D3400B60704700BF00E00140DF
:100B5000D401002014040020704700BF4AF2035063
:100B600001233F493F4A2DE9F041A1F8FE03A2F8D5
:100B70000431B2F804319BB2002BFAD101274FF4B3
:100B8000004120250920384CDFF8F4C0374EC4F866
:100B900004C0DFF8F0C0324BC4F80CC0A2F80071FA
:100BA000334A2660A1602161626193F82620196AA8
:100BB00054F822202F4EC1F30261CA40326083F8FC
:100BC000135483F8A20093F880241AB993F881345F
:100BD0009A073FD0224D95F8803483B30022204BF2
:100BE00083F8812483F8802400231D4A82F8323060
:100BF00092F83C301B07FBD50025032143F2021875
:100C0000F1274FF0F00E4FF4254C1B48A2F8288036
:100C100082F82A50106282F8261092F82610106A84
:100C200054F82110154BC0F30260C14031601F73AE
:100C30001D7283F80CE0A2F8FEC3BDE8F08101212B
:100C4000C82085F8801400F05DF895F88034012BF9
:100C5000FBD1C3E74FF47A70FFF77EFFC4E700BF14
:100C600000E0014000C00140D4010020002D31010E
:100C700000E1F505140400202112021100200040BB
:100C800000127A00001BB70038B50025164C012170
:100C9000C82084F8285000F035F884F8245094F8DF
:100CA0002430002BFBD194F824300F4A43F0020388
:100CB00084F8243092F82430C3F340019B07F9D420
:100CC000094882F8221090F8223003F0FF04002B2C
:100CD000F9D1012000F0E2F8044B012083F8BB4475
:100CE000BDE8384000F0AAB80030084000E00140FC
:100CF000704700BF00BEFEE7A0F101000028FBD155
:100D0000704700BF4FF47A7310B400FB01F1114C2F
:100D1000114A2468B2FBF4F2A1FB03043CB9B0FB16
:100D2000F2F0800860B15DF8044BFFF7E5BF920078
:100D3000B1FBF2F1A1FB03132BB908460028F2D155
:100D40005DF8044B70474FF0FF3C5DF8044B604684
:100D5000FFF7D2BF1404002000CA9A3B70B50024EC
:100D60000B4B0C4EB3F82021B3F84051ADB21540F7
:100D700025FA04F3DB0704D556F82430E0B203B1BA
:100D8000984701340E2CF3D1014BA3F8305170BDBC
:100D9000006000404C02002030B5032085B000F018
:100DA0007DF86FF0FF054FF0FF31204C0023224605
:100DB0004FF0010E1E488564CDE90111039104F145
:100DC000C00532F8020F590960B104A800EB810197
:100DD00051F80C0C03F01F0C0EFA0CFC20EA0C006E
:100DE00041F80C0C954203F10103EAD10199114B32
:100DF0000F4A03201167C3F8801202995167C3F8A4
:100E0000841203999167C3F8881200F017F8002341
:100E1000094834F8022F03F1C00101330AB140F848
:100E20002120A542F5D105B030BD00BF923E0000A3
:100E30000080004000E100E000600040EFF310811E
:100E4000012383F31088124B33F8102092B22AB199
:100E500033F81020013A92B223F8102033F8103002
:100E60009BB293B910B40B4A0B4CB2F8FE3334F872
:100E700010009BB243F4254323EA0003A2F8FE339B
:100E800081F310885DF8044B704781F31088704738
:100E90000804002000E001405C3F000030B4EFF3A4
:100EA0001081012383F310880E4A32F810309BB270
:100EB0006BB90D4C0D4DB4F8FE3335F810C09BB234
:100EC00043EA0C0343F425439BB2A4F8FE3332F803
:100ED000103001339BB222F8103081F3108830BCFF
:100EE000704700BF0804002000E001405C3F0000A4
:100EF00008B50C4A0346106840B103330A4923F091
:100F0000030303448B4205D8136008BD0749084614
:100F10001160F2E700F008FE0C2203461A604FF061
:100F2000FF3008BD1004002068250020680500205F
:100F300000BE704708B500F003F8FFF71FFAFEE7A0
:100F40004FF4700270B52B4B2B4CC3F88820002057
:100F50009C60FFF707FAFFF701FE0120FFF702FA96
:100F60002368A3F5806383F30A882448244A002178
:100F7000121A00F087FD2348234A2449121A00F070
:100F8000DCFD234D234B5B1B002B07DD00249E1053
:100F900055F8043B01349847A642F9DCFFF7C8FD39
:100FA000FFF772FE0320FFF779FF4FF6FF72002470
:100FB000194B03201A825A829A82DA821A835A8340
:100FC0009A83DA83FFF73AFF0320FFF767FF134B9B
:100FD00003205C609C60DC601C61FFF72FFF022037
:100FE000FFF7C0F9FFF7D8FE2046BDE87040FFF7D5
:100FF0007FBE00BF00ED00E000000000F001002017
:101000006405002000000020D40100209842000068
:10101000CC010020D0010020000D084000000E404F
:101020002DE9FF4757EC106B002F0C4619463B4645
:10103000B4BF07F1004300239146BFBF32461F46AD
:101040002D231646DDF830A00B700D9B23F02008F1
:10105000B8F1460F05D0B8F1450F00D10134022197
:1010600000E0032103AB2246019302AB47EC106B77
:101070000093534600F004FEB8F1470F054619D11E
:1010800019F0010F0ED000EB0409002200233046B6
:10109000394602F0CDFD08B1CDF80C903022039B0B
:1010A0004B451ED3039B28460E9A5B1B136004B06E
:1010B000BDE8F087B8F1460F00EB0409E5D10378ED
:1010C000302B0AD1002200233046394602F0B0FD11
:1010D00018B9C4F10104CAF80040DAF800309944A4
:1010E000D3E7591C03911A70D9E7F7B500290270AC
:1010F000BABF49422D232B230929437028DD0DF166
:1011000007030A271D461A46013BB1FBF7F607FB0A
:101110001614303402F8014C0C463146632CF2DCD4
:101120003031941E03F8011C411C2346AB420AD304
:101130000DF109039B1AAC4288BF0023023303441C
:10114000181A03B0F0BD13F8016B01F8016FEDE759
:10115000302330318370031DC170F1E72DE9F04F6A
:101160008DB00C4616461F46DDF85880054600F047
:1011700091FC03681846049300F0ECFC00230590F2
:101180000A93D8F8003094F818A00733D4F800B0C8
:1011900023F0070303F10802C8F800204FF0FF32E4
:1011A000D3E9008929F00043CDF8188007939D4BBF
:1011B000DDE90601C4E9128902F06CFD70BB4FF055
:1011C000FF32984BDDE9060102F046FD30BB0022FC
:1011D00000234046494602F035FD10B12D2384F826
:1011E0004330914A914BBAF1470F8CBF90469846D5
:1011F00003234FF0000923612BF0040323603346DF
:101200000BAA21462846009700F0D2F9013040F0A1
:101210008D804FF0FF300DB0BDE8F08F42464B4659
:101220004046494602F036FD40B14B46804A002B0D
:10123000BCBF2D2384F843307E4BD4E70AF0DF0295
:10124000636806925A1C3BD1062363604BF48062AC
:1012500000232846226003930AABCDE901A309AB22
:1012600049EC108B00930DF123036168FFF7D8FE62
:10127000069B80460999472B29D1C81C02DB63686D
:10128000994241DDAAF1020A5FFA8AFA013952460F
:1012900004F150000991FFF728FF0A9A81461318BC
:1012A000012A236102DC2268D20701D501332361C0
:1012B0009DF82330002BA2D02D2384F843309EE7E5
:1012C000069A472AC2D1002BC0D10123BDE7BAF14B
:1012D000650FDBD9BAF1660F18D1002963680BDD01
:1012E000216113B92268D00702D501330B44236171
:1012F0004FF00009A165DBE713B92268D20701D5D9
:101300000233F4E70123F2E74FF0670A0A9B9942A0
:1013100005DB23682161D807EAD54B1CE7E70029E4
:10132000D4BFC1F1020201221344E0E723685A0549
:1013300007D42369424631462846B84701302BD1AD
:1013400067E7BAF1650F40F2DD8000220023D4E99F
:10135000120102F06DFC002833D00123364A3146D9
:101360002846B84701303FF454AFDDE9093843451A
:1013700002DB2368D8070FD531462846DDE9042370
:10138000B84701303FF445AF4FF0000908F1FF388E
:1013900004F11A0AC84509DC23689B0700F10381A0
:1013A000E0680B9B9842B8BF184634E701235246C9
:1013B00031462846B84701303FF42BAF09F1010907
:1013C000E8E7099B002B39DC01231B4A31462846FC
:1013D000B84701303FF41DAFDDE9093959EA03038D
:1013E00002D12368D907D7D531462846DDE9042341
:1013F000B84701303FF40DAF4FF0000A04F11A0B6B
:10140000099B5B42534501DC4B4693E701235A4657
:1014100031462846B84701303FF4FBAE0AF1010AD5
:10142000EEE700BFFFFFEF7F683F0000643F000072
:10143000703F00006C3F0000743F0000A36DDDF8BA
:1014400028A05345A8BF5346002B994636DC4FF0E1
:10145000000B29EAE97904F11A02A36D0693A3EBC4
:1014600009035B4531DC099B9A453ADC2368DA07BE
:1014700037D4099BAAEB0309069BAAEB0303994502
:10148000A8BF9946B9F1000F33DC4FF0000829EAF4
:10149000E97904F11A0B099BAAEB0303A3EB0903F7
:1014A00043457FF779AF01235A4631462846B8476E
:1014B00001303FF4AEAE08F10108ECE74246314698
:1014C0002846B8470130C2D1A3E601233146284659
:1014D0000692B84701303FF49CAE0BF1010B069A1F
:1014E000BBE7DDE9042331462846B8470130C0D1C7
:1014F0008FE6069A4B46314628464244B8470130AB
:10150000C3D186E6DDF828A0BAF1010F01DCDB07C4
:1015100036D50123424631462846B84701303FF4CC
:1015200078AE31462846DDE90423B84701303FF460
:1015300070AE002200230AF1FF3AD4E9120102F052
:1015400077FBC0B9534608F1010231462846B84737
:1015500001300CD15DE601235A4631462846B84792
:1015600001303FF456AE08F10108D045F3DB4B469D
:1015700004F15002DFE64FF0000804F11A0BF4E723
:1015800001234246E1E701234A4631462846B8474F
:1015900001303FF43EAE08F10108E3680B995B1A95
:1015A0004345F0DCFCE64FF0000804F11909F4E7CC
:1015B0002DE9F047164698468A6807460B690C469F
:1015C000DDF820909342B8BF1346336091F8432072
:1015D0000AB1013333602368990642BF336802338E
:1015E0003360256815F0060506D104F1190AE36891
:1015F00032689B1AAB422BDC94F843302268003BE4
:1016000018BF0123920630D404F143024146384604
:10161000C847013023D023681A3454F80A2C03F049
:101620000603042B0ABF54F80E5C002533684FF004
:10163000000608BFED1A54F8123C08BF25EAE5750C
:101640009342C4BF9B1AED18B5421AD1002008E09E
:101650000123524641463846C847013003D14FF076
:10166000FF30BDE8F0870135C1E7E1185A1C302092
:101670000233224481F8430094F8451082F8431065
:10168000C2E70123224641463846C8470130E6D02A
:101690000136D9E7002310B50446836081811946DD
:1016A0004366C28108228361C0E90033C0E9043384
:1016B0005C3000F0E7F90D4B246263620C4BA362CF
:1016C0000C4BE3620C4B23630C4B9C4206D003F1A2
:1016D0006802944202D0D0339C4205D104F15800F4
:1016E000BDE8104000F026BA10BD00BFD5180000BC
:1016F000F71800002F1900005319000018040020EB
:10170000024A0349034800F069B800BF0400002002
:10171000093200001400002041680C4B994210B5BA
:10172000044601D001F070FDA168094B994202D036
:10173000204601F069FDE168064B994204D020463D
:10174000BDE8104001F060BD10BD00BF18040020CE
:1017500080040020E804002010B50B4B04210B4C42
:101760000B4A20461A600022FFF794FF04F168003C
:1017700001220921FFF78EFF04F1D000022212217D
:10178000BDE81040FFF786BF500500201804002078
:1017900001170000014800F0CEB900BF5905002034
:1017A000014800F0C9B900BF5905002010B5044632
:1017B000FFF7F0FF236A1BB1BDE81040FFF7F0BF51
:1017C000044B2362044B1B68002BF5D1FFF7C4FFC9
:1017D000F2E700BF19170000500500202DE9F8437B
:1017E0000746884614460026D4E90195B9F1010957
:1017F00005D52468002CF7D13046BDE8F883AB89C5
:10180000012B07D9B5F90E30013303D029463846EC
:10181000C04706436835E9E7036A70B505460E46DA
:1018200084680BB9FFF7C2FF636EDB0705D4A38999
:10183000980502D4A06D00F07EF9A389190702D59E
:101840002369002B35D12146284600F0C5F880B326
:101850004FF0FF35636EDA0705D4A3899B0502D4E8
:10186000A06D00F069F9284670BD002B04DAA2696A
:101870009A4217DC0A2915D023685A1C2260197075
:10188000A36816F8011F013BA3600029EDD1002BCE
:1018900011DA22460A21284600F05FF80130D7D03D
:1018A0000A25D7E72246284600F057F80130E7D14D
:1018B000CEE7013EE4E723685A1C22600A221A7030
:1018C000EEE7FFFF024B01461868FFF7A5BF00BF18
:1018D0001000002010B50C46B1F90E1000F000F910
:1018E0000028ABBF636DA3891B1823F48053ACBFE2
:1018F0006365A38110BD2DE9F0411F468B89054624
:101900000C46DB05164605D502230022B1F90E1060
:1019100000F0D4F8A3893246B4F90E10284623F417
:101920008053A3813B46BDE8F04100F0EBB810B511
:101930000C46B1F90E1000F0C1F8431CA38915BF85
:10194000606523F4805343F48053A38118BFA381BF
:1019500010BDB1F90E1000F0A1B8F8B50E4614464E
:10196000054618B1036A0BB9FFF720FFA369A3600E
:10197000A3891A0701D5236943B92146284600F0F7
:101980002BF818B14FF0FF373846F8BD2368F6B290
:1019900022693746981A6369834205DC2146284646
:1019A00001F032FC0028EDD1A368013BA36023685D
:1019B0005A1C22601E70431C62699A4204D0A3899B
:1019C000DB07E1D50A2EDFD12146284601F01CFCB9
:1019D0000028D9D0D6E7FFFF38B5294B05460C467D
:1019E000186818B1036A0BB9FFF7E0FEB4F90C30C0
:1019F000190722D4DA0607D409222A6043F04003EB
:101A00004FF0FF30A38133E0580712D5616B41B12D
:101A100004F14403994202D0284600F0EFFE00236F
:101A20006363A38923F02403A381002363602369F4
:101A30002360A38943F00803A38123694BB9A389D9
:101A400003F42073B3F5007F03D02146284601F04C
:101A500028FCB4F90C3013F001020AD00022A26075
:101A600062695242A261226942B913F08000C5D175
:101A700038BD990758BF6269A260F4E70020F7E714
:101A80001000002002440346934200D1704703F83F
:101A9000011BF9E7004870475001002038B50023CA
:101AA000054D044608462B6002F032F9431C02D172
:101AB0002B6803B1236038BD5405002038B50446B7
:101AC000064D0846114600222A601A4602F038F9EF
:101AD000431C02D12B6803B1236038BD540500209C
:101AE00038B50446064D0846114600222A601A46BB
:101AF00002F02EF9431C02D12B6803B1236038BDDC
:101B00005405002038B50446064D0846114600220B
:101B10002A601A46FEF7A6FB431C02D12B6803B1CC
:101B2000236038BD54050020014B1868704700BF82
:101B3000100000207047704770470A44431E9142CE
:101B400000D1704710B511F8014B914203F8014FD5
:101B5000F9D110BD034613F8012B002AFBD1181A46
:101B6000013870472DE9F74F036907460C69A34216
:101B7000C0F28380013C00F1140501F11408A300B8
:101B800055F8242008EB8409009305EB84030193A6
:101B900058F8243001339A42B2FBF3F631D34FF0B8
:101BA000000AC446AE46D3465CF8043B98B2E14511
:101BB0004FEA134306FB00A04FEA104280B206FB37
:101BC0000323DEF8002092B24FEA134AA2EB000290
:101BD0009BB2DEF800005A44C3EB224392B203EBFF
:101BE000104342EA03424FEA234B4EF8042BDBD268
:101BF000009BEB582BB9019B043B9D421A4630D306
:101C00003C61384601F070F9002826DB29460020A7
:101C100058F8042BD1F800C01FFA82FEC1451FFA04
:101C20008CF34FEA1242A3EB0E030344C2EB2342B0
:101C30009BB202EB1C4243EA02434FEA224041F8C6
:101C4000043BE5D255F8242005EB840322B9043B7C
:101C50009D421A460BD33C610136304603B0BDE8C5
:101C6000F08F1268043B002ACAD1013CC5E7126814
:101C7000043B002AEFD1013CEAE70020EEE7FFFF3A
:101C80002DE9F04FC76999B08346229E09910E92C3
:101C9000139355EC104B8DED040B7FB9102000F021
:101CA000F7FD0246CBF81C0020B9A74BEF21A7484F
:101CB000FFF720F8C0E901770760C760DBF81C3048
:101CC000196859B15A680123584693404A608B609D
:101CD00000F0D4FEDBF81C3000221A602B1EB7BFC8
:101CE00023F00043002301220593A8BF3360059F22
:101CF000974BB8BF3260BB4312D142F20F73139AB5
:101D00001360C7F31303234300F04685239BDFF8DA
:101D100054A2002B00F048850AF1030300F042BDF5
:101D20009DED047B0022002351EC170B8DED0C7B05
:101D300001F07EFF804658B10123139A1360239B64
:101D400013B1844B239A1360DFF81CA200F02CBD62
:101D5000C7F30A5616AA17A958469DED0C0B01F0B9
:101D600077F98146002E75D00D9BA6F2FF36CDF88F
:101D70005080C3F3130343F07F53DDE90C0143F4B8
:101D8000401319460022744B01F032FB68A3D3E9DB
:101D9000002301F0E5FC68A3D3E9002301F02AFB4E
:101DA00004460D46304601F071FC65A3D3E90023DB
:101DB00001F0D6FC02460B462046294601F01AFBEC
:101DC00004460D4601F07CFF002207460023204612
:101DD000294601F037FF40B1384601F057FC224652
:101DE0002B4601F025FF00B9013F162F51D85B4B60
:101DF00003EBC703DDE90C01D3E9002301F022FF67
:101E0000002848D0013F00231293169B9B1B5A1EAB
:101E100046BFC3F1010800234FF00008089248BFF5
:101E20000893002F39DB089B0F973B44089300234E
:101E30000A93099B092B61D8052BC5BF043B0024DD
:101E400001240993099B023B032B63D8DFE803F0CD
:101E50005254372CDDE916631E4406F23243202B20
:101E6000C9BFC3F14003C3F120039F4006F21243F0
:101E7000D8BF04FA03F006F1FF36C4BF24FA03F317
:101E800047EA030001F0F2FB0122A1F1F87314927A
:101E900077E70123B8E71290B7E77B42A8EB070882
:101EA0000A9300230F93C4E701230B930E9BFB18A7
:101EB00000930133012B0393B8BF012306E00123F4
:101EC0000B930E9B002B28DD00930393DBF81C0083
:101ED0000021042202F114059D4223D94160584695
:101EE00000F08CFD8246002840D11D4B024640F296
:101EF000AF11DCE60023E3E70023D6E7012400234B
:101F00000B9409934FF0FF330022009303931223A5
:101F10000E92DBE701230B93F4E701231A460093AB
:101F20000393F5E701315200D4E700BFAFF300801F
:101F300061436F63A787D23FB3C8608B288AC63FCF
:101F4000FB799F501344D33F833F00009A3F00002A
:101F50000000F07F753F00000000F83FA040000047
:101F6000F33F00007F3F0000743F0000DBF81C30AF
:101F70001860039B0E2B00F2A180002C00F09E80C5
:101F8000002F33DD07F00F029B4BF8054FEA2714B3
:101F900003EBC20393ED007B8DED067B16D5974BCB
:101FA00004F00F040326D3E90823DDE90C0101F056
:101FB00001FDCDE90401914D54B9DDE90623DDE9C8
:101FC000040101F0F7FCCDE9040128E00226F2E764
:101FD000E10708D50136DDE90601D5E9002301F066
:101FE000BFFBCDE9060164100835E5E700F0AF80DE
:101FF0007C42814B814D022604F00F02241103EB39
:10200000C203DDE90C01D3E9002301F0A9FB0023A1
:10201000CDE90401002C40F08F80002BD3D1129B1E
:10202000DDE90445002B00F094800022744B20462B
:10203000294601F007FE002800F08B80039B002B4F
:1020400000F08780009B002B34DD7B1E20460022A1
:102050002946069301366B4B01F082FB009CCDE9CB
:102060000401304601F012FBDDE9042301F078FBA6
:102070000022654B01F0BEF90546A1F15076002C17
:102080006AD10022614BDDE9040101F0B1F9024699
:102090000B46CDE904232A46334601F0F1FD002822
:1020A00040F087822A4606F10043DDE9040101F091
:1020B000C9FD38BBDDE90C34CDE90434179B002B96
:1020C000C0F258810E2F00F355814B4B03EBC70331
:1020D00093ED007B0E9B002B8DED007B80F2E58065
:1020E000039B002B00F3E1800CD10022474B51EC05
:1020F000170B01F035FBDDE9042301F0B7FD0028E3
:1021000000F05582002425460E9B5646DB4306937D
:1021100000272146584600F0B1FC002D00F0BD809C
:102120002FB1AF4203D03946584600F0A7FC2946EC
:10213000584600F0A3FCB0E0E20705D50136D5E92A
:10214000002301F00DFB01236410083562E702262D
:1021500065E7039C069784E7274B0B9903EBC403C1
:10216000544453E90223002954D00020284901F0A7
:1021700021FC334656462A4601F03AF9CDE91001D2
:10218000DDE9040101F09CFD054601F07FFA0246FD
:102190000B463035DDE9040101F02AF902460B4611
:1021A00006F8015BCDE90423DDE9102301F04AFDC7
:1021B000002872D100201249DDE9042301F018F94A
:1021C000DDE9102301F03EFD002840F0B480A64276
:1021D0003FF470AF00220B4BDDE9100101F0C0FAB3
:1021E0000022084BCDE91001DDE9040101F0B8FA45
:1021F000CDE90401C4E700BFA04000007840000022
:102200000000F03F0000244000001C40000014408B
:102210000000E03F31465646284601F0A1FA1594E9
:10222000CDE91001DDE9040101F04AFD054601F0A8
:102230002DFA024630350B46DDE9040101F0D8F8ED
:1022400006F8015B02460B46A642CDE904234FF097
:10225000000224D1AB4BDDE9100101F0CBF80246BE
:102260000B46DDE9040101F00BFD002863D10020DD
:10227000A449DDE9102301F0BBF802460B46DDE975
:10228000040101F0DFFC00283FF414AF159E731E1B
:10229000159316F8013C302BF8D0069F3BE09A4B83
:1022A00001F05EFACDE90401BCE7DDE904455646DC
:1022B00020462946DDE9002301F07CFB01F000FD0A
:1022C000804601F0E3F9DDE9002301F049FA024616
:1022D000204608F130040B46294601F089F8039D99
:1022E00006F8014BA6EB0A0402460B46A54234D180
:1022F00001F080F804460D46DDE9002301F0C0FC42
:10230000C0B920462946DDE9002301F091FC10B157
:1023100018F0010F0ED14946584600F0AFFB0023DC
:1023200001373370139B1F60239B002B00F03C820E
:102330001E6039E2069733461E4613F8012D392AEE
:1023400007D19A45F8D1069A0132069230228AF8CE
:1023500000201A7801321A709FE700226A4B01F0C0
:10236000FFF90022002304460D4601F061FC00281D
:102370009ED0D0E70B9A002A00F0E180099A012A4A
:1023800000F3C480149A002A00F0B78003F23343AC
:102390000A9C4646089A0121584698441A440892D5
:1023A00000F022FC05465EB1089B002B08DDB3421D
:1023B000089AA8BF3346A8EB0308F61AD31A089365
:1023C0000A9BF3B10B9B002B00F0BD808CB129461A
:1023D0002246584600F0C2FC4A4601460546584689
:1023E00000F018FC49460690584600F047FB069B53
:1023F00099460A9B1A1B04D04946584600F0AEFC89
:1024000081460121584600F0EFFB0F9B0446002B4C
:1024100000F0CE811A460146584600F09FFC099B09
:102420000446012B00F39580049B002B40F08D8027
:10243000059BC3F31303002B40F08980059B23F019
:1024400000431B0D1B052BB1089B08F1010801334C
:10245000089301230A930F9B002B00F0AF8123699F
:1024600004EB8303186900F073FBC0F12000089BA4
:10247000184410F01F0077D0C0F12003042B6BDD4F
:10248000C0F11C00089B8044034406440893B8F143
:10249000000F05DD49464246584600F0B9FC81462A
:1024A000089B002B05DD21461A46584600F0B0FC7B
:1024B0000446129B002B59D02146484600F014FDDB
:1024C000002853DA7B1E49460A2258460693002309
:1024D00000F0F6FA0B9B8146002B00F0718100237F
:1024E00029460A22584600F0EBFA009B0546002BCD
:1024F00067DC099B022B41DC63E0169BC3F13603CA
:1025000046E700BF0000E03F00002440039B5C1E44
:102510000A9BA34209DB1C1B039B002BBFF639AFB0
:10252000039BA8EB0306002334E70A9B46460F9A59
:10253000E31A0A9400241A44039B0F922AE70A9C88
:1025400046460B9D2FE70A9A56E7002382E7049B35
:1025500080E700230A9382E799D01C33089A1A4433
:1025600098441E44089292E70346F6E7039B0697B9
:10257000002B20DC0093099B022B1EDD009B002B0F
:102580007FF4C2AD21460522584600F099FA014673
:102590000446484600F0A8FC00287FF7B5AD31237B
:1025A000564606F8013B069B01330693B0E5039CB3
:1025B00006972546F3E7039B00930B9B002B00F047
:1025C0000381002E05DD29463246584600F020FCE6
:1025D00005460A9B002B5AD06968584600F00EFA4F
:1025E000064628B9834B024640F2EF21FFF75FBB56
:1025F0002A6905F10C010C3002329200FFF79DFAB6
:1026000001223146584600F003FC0AF101032F462F
:1026100005460393009B53440B93049B03F0010373
:102620000A93039B21464846013B0093FFF79AFA21
:102630003946049000F13008484600F055FC2A461F
:1026400008902146584600F06BFCC268064602BB63
:102650000146484600F048FC0246314658460E9274
:1026600000F00CFA099B0E9A039E42EA03010A9BB2
:10267000194310D1B8F1390F29D0089B002B02DD86
:10268000049B03F13108009B83F8008041E5284654
:10269000BBE70122E1E7089B002B04DB09990B4310
:1026A0000A990B4320D1002AEDDD49460122584604
:1026B00000F0AEFB2146814600F016FC002803DC4A
:1026C000E1D118F0010FDED0B8F1390FD8D139239C
:1026D000009A137033461E46013B16F8012C392A26
:1026E00051D001321A7014E5002A07DDB8F1390F14
:1026F000EDD008F10103009A13700AE5039B0B9AD1
:1027000003F8018C934228D0494600230A225846F8
:1027100000F0D6F9AF4281464FF000034FF00A02B5
:102720003946584607D100F0CBF907460546039BCA
:102730000133039375E700F0C3F9294607460023E8
:102740000A22584600F0BCF90546F0E7009B002736
:10275000002BCCBF1E46012656444946012258464E
:1027600000F056FB2146814600F0BEFB0028B1DC9C
:1027700002D118F0010FADD133461E4613F8012DDA
:10278000302AFAD0C5E49A45A5D1069B01330693B9
:1027900031238AF80030BCE4239BDFF85CA01BB136
:1027A0000AF10803239A1360504619B0BDE8F08F70
:1027B000099B012B7FF738AE0F9B0A93012056E649
:1027C000009B002B7FF7D7AE564621464846FFF7C1
:1027D000C9F900F13008009B06F8018BA6EB0A024C
:1027E0009342B3DD494600230A22584600F068F9B7
:1027F0008146EAE7F33F0000763F000038B5054622
:10280000002941D051F8043C0C1F002BB8BFE4183C
:1028100000F0E8F81D4A136833B963601460284675
:10282000BDE8384000F0E4B8A34208D92068211878
:102830008B4201BF19685B6809182160EDE71A46F1
:102840005B680BB1A342FAD911685018A0420BD1B2
:1028500020680144501811608342E0D118685B6819
:10286000084453601060DAE702D90C232B60D6E7E6
:10287000206821188B4202BF19685B6809186360E1
:1028800008BF21605460CAE738BD00BF6005002062
:10289000024B0146186800F025B800BF1000002068
:1028A00070B50F4E0C460546316811B900F058FD61
:1028B00030602146284600F053FD431C03D14FF001
:1028C000FF34204670BDC41C24F00304A042F8D09D
:1028D000211A284600F044FD0130F2D1EFE700BF95
:1028E0005C0500202DE9F843CD1C064625F00305C4
:1028F00008350C2D38BF0C25002D01DBA94204D969
:102900000C2333600020BDE8F883DFF8D48000F0AA
:1029100069F8D8F800301C4644BB29463046FFF71A
:10292000BFFF431C044658D1D8F800402746002F6B
:1029300043D1002C4BD023683946304604EB0309C1
:1029400000F00EFD814542D1216830466D1A2946BE
:10295000FFF7A6FF01303AD023682B442360D8F854
:1029600000305A6862BBC8F800700FE02268521B42
:1029700020D40B2A17D96119A342256018BF5960CA
:10298000636808BFC8F8001062514B60304600F021
:102990002FF804F10B00231D20F00700C21A1CBF02
:1029A0001B1AA350AFE76268A3420CBFC8F800200F
:1029B0005A60EBE723466468AEE73C467F68B6E7BB
:1029C0001A465B68A342FBD100235360DEE70C2369
:1029D0003046336000F00CF894E70560D6E700BF9E
:1029E000600500200148FFF7A6B800BF5805002089
:1029F0000148FFF7A1B800BF5805002070B5C669AF
:102A000004460D4676B91020FFF742FF0246E0610A
:102A100020B9184B6B211848FEF76CF9C0E9016624
:102A20000660C660E669F36883B1E369DB6853F862
:102A30002500B8B90121204601FA05F6721D920061
:102A400000F09EFC60B1C0E901560EE02122042195
:102A5000204600F095FCE369F060DB68002BE4D1D0
:102A6000002070BD026843F825200023C0E903332D
:102A7000F7E700BF833F00000440000070B5C6695F
:102A800005460C4676B91020FFF702FF0246E861C2
:102A900020B9094B8F210948FEF72CF9C0E90166DE
:102AA0000660C6603CB1EB696268DB6853F82210CF
:102AB000216043F8224070BD833F000004400000C5
:102AC0002DE9F04101F1140C07460C461E460D6934
:102AD0000020DCF80030013099B2854202FB016130
:102AE0004FEA13464FEA114389B202FB063301EB6A
:102AF00003414FEA13464CF8041BEADC0EB3A3680B
:102B0000AB4219DC616838460131FFF777FF804638
:102B100028B902460C4BBA210C48FEF7EBF82269A3
:102B200004F10C010C3002329200FFF706F8214646
:102B300044463846FFF7A2FF04EB850301355E618A
:102B400025612046BDE8F081F33F0000044000000D
:102B5000B0F5803F034636BF030400201020B3F1D8
:102B6000807F3CBF1B020830B3F1805F3CBF1B017C
:102B70000430B3F1804F3CBF9B000230002B05DBDB
:102B800013F0804F00F1010008BF20207047036858
:102B9000024613F007000BD0D90721D4980747BF8E
:102BA0005B0801209B0802204CBF13601360704734
:102BB00099B209B91B0C1020D9B209B908301B0A07
:102BC000190704BF1B090430990704BF9B08023092
:102BD000D90703D45B0800F1010003D013607047EC
:102BE000002070472020704710B50C460121FFF7E8
:102BF00005FF024628B9054B40F245110448FEF78F
:102C000079F801234461036110BD00BFF33F000068
:102C1000044000002DE9F04F17460A69894685B047
:102C20003B699A42A2BF3B460F4699463D69BB6845
:102C3000D9F810A0796805EB0A06B342B8BF013194
:102C4000FFF7DCFE30B90246424B4FF4B171424807
:102C5000FEF750F800F11404002204EB860E234620
:102C6000734520D307F1140809F1140108EB850519
:102C700001EB8A030293EB1B1537153B23F003038B
:102C80000433BD4238BF04230193029B03918B425E
:102C90000CD8002E03DD5EF8043D002B57D00661F2
:102CA00005B0BDE8F08F43F8042BD9E7B1F800A0D8
:102CB000BAF1000F21D0C446A14600275CF8042BCE
:102CC000D9F800301FFA82FB65459BB24FEA1242E9
:102CD0000AFB0B333B44D9F800704FEA17470AFB55
:102CE000027202EB13429BB24FEA124743EA0243DD
:102CF00049F8043BE2D8019BE750039B0431B3F849
:102D00000290B9F1000F20D023684746A4464FF047
:102D1000000AB7F800B09BB2BCF8022009FB0B22F6
:102D2000524443EA02434CF8043B57F8043B4FEA51
:102D3000134ABCF80030BD4209FB0A3303EB1243CF
:102D40004FEA134AE5D8019AA35004349DE7013EA7
:102D50009FE700BFF33F0000044000002DE9F84367
:102D6000154612F0030207460E4607D0013A254CDD
:102D7000002354F82220FFF7A3FE0646AD103DD0F5
:102D8000FC697CB91020FFF783FD0246F86128B981
:102D90001D4B40F2B3111D48FDF7ACFFC0E90144E3
:102DA0000460C460D7F81C80D8F808404CB940F2E1
:102DB00071213846FFF718FF00230446C8F80800C1
:102DC00003604FF00009EB070AD53146224638462A
:102DD000FFF720FF8046314638464646FFF74EFE55
:102DE0006D100BD0206838B9224621463846FFF7CF
:102DF00011FF2060C0F800900446E4E73046BDE8CB
:102E0000F88300BF68400000833F000004400000DA
:102E10002DE9F0470C46074691464FEA621A2369AE
:102E2000496803EB6218A36808F10106B3420BDBA3
:102E30003846FFF7E3FD054648B90246284B4FF4F4
:102E4000EF712848FDF756FF01315B00EEE70023E4
:102E500000F1140100F110021846534533DB2AEA51
:102E6000EA7A04F11403206919F01F0901EB8A01C1
:102E700003EB800C2BD0C9F1200E8A460022186883
:102E800000FA09F010434AF8040B53F8042B9C4550
:102E900022FA0EF2F3D8ACEB040304F11500153B53
:102EA00023F003030433604588BF0423CA500AB1EA
:102EB00008F10206013E384621462E61FFF7DEFD8D
:102EC0002846BDE8F087013342F8040FC5E704390E
:102ED00053F8042B9C4541F8042FF9D8EAE700BFCA
:102EE000F33F00000440000003460A690069801AAD
:102EF00030B50ED11433143103EB820401EB82019F
:102F000054F8045D51F8042D954203D005D24FF0DA
:102F1000FF3030BDA342F3D3FBE70120F9E7FFFF09
:102F20002DE9F74F89460646114614464846FFF7F5
:102F3000DBFF051E12D129463046FFF75FFD024632
:102F400028B9414B40F237214048FDF7D3FE012319
:102F5000C0E90435104603B0BDE8F08FBCBF4B4656
:102F6000A1463046B8BF0125D9F80410B4BF1C46AD
:102F70000025FFF743FD024618B9334B40F24521C7
:102F8000E2E7D9F8107004F1140E266900F1140B71
:102F9000C56009F1140509F110030EEB860605EB77
:102FA0008708D9464FF0000C0193019B5EF8040B93
:102FB00053F804AF764501931FFA8AF3194683B29A
:102FC0004FEA1040A1EB0303C0EB1A40634400EB4F
:102FD00023409BB24FEA204C43EA004349F8043BAC
:102FE000E3D8331B1534153B23F003030433A64207
:102FF00038BF04231D445B442C461E4644450ED373
:1030000008F10301491B033D21F00301A84538BF26
:1030100000210B4453F8041D99B117619AE754F845
:10302000041BE6461FFA81FC080C7144F44489B283
:1030300000EB2C4041EA00414FEA204C46F8041BCB
:10304000DCE7013FE6E700BFF33F0000044000007B
:103050002DE9F7430F460121164659EC108BFFF777
:10306000CDFC044630B90246234B40F20F312348D1
:10307000FDF740FEC9F30A55C9F313030DB143F43C
:1030800080130193B8F1000323D068460093FFF743
:103090007EFDDDE90012D0B1C0F1200302FA03F396
:1030A000C2400B4301926361019B002BA3610CBFE3
:1030B000012202222261A5B1A5F233450544C0F1E7
:1030C00035003D603060204603B0BDE8F0836161AB
:1030D000EAE701A8FFF75BFD019B20300122636155
:1030E000E8E7A0F2324004EB820338601869FFF78A
:1030F0002FFDC0EB4210E5E7F33F00000440000065
:10310000B1F90C202DE9F041160705460C4654D4C0
:103110004B68002B02DC0B6C002B48DDE66A002EAE
:1031200045D0002312F480522F68216A2B6030D0E2
:10313000626DA389590705D56368D21A636B0BB119
:10314000236CD21A0023E66A216A2846B047431C42
:10315000A38906D129681D292BD82A4ACA40D60737
:1031600027D50022D90462602269226004D5421C5E
:1031700001D12B6803B96065616B2F60B9B104F1AF
:103180004403994202D02846FFF738FB00236363CB
:103190000DE001232846B0470246501CC9D12B68D8
:1031A000002BC6D01D2B01D0162B1DD12F60002067
:1031B00021E043F040031BB21AE00F69002FF6D064
:1031C00093070E680F600CBF4B690023A6EB07083E
:1031D0008B60B8F1000FEADD43463A46216A284683
:1031E000A66AB047002808DCB4F90C3043F040036D
:1031F0004FF0FF30A381BDE8F0810744A8EB000841
:10320000E7E700BF0100402038B50B6905460C46D2
:1032100013B90025284638BD18B1036A0BB9FEF76B
:10322000C5FAB4F90C30002BF3D0626ED00704D489
:10323000990502D4A06DFEF77EFC28462146FFF7D3
:103240005FFF636E0546DA07E4D4A3899B05E1D4EA
:10325000A06DFEF771FCDDE770B50C46B1F90E10FC
:1032600096B0154600291E460CDAA389002113F0FA
:10327000800F14BF40234FF48063002031602B6027
:1032800016B070BD6A4600F049F80028EDDB0199E0
:1032900001F47041A1F50053594259414FF4806344
:1032A000EBE78B89F7B59D0706460C4607D504F179
:1032B0004703236023610123636103B0F0BD01ABC9
:1032C0006A46FFF7C9FF009F054630463946FFF7BB
:1032D00009FB48B9B4F90C309A05EED423F0030386
:1032E00043F00203A381E2E7A389206043F0800357
:1032F000A381019BC4E904075BB1B4F90E10304609
:1033000000F01EF828B1A38923F0030343F0010362
:10331000A381A3891D43A581CFE7FFFF38B5002313
:10332000064D0446084611462B6000F0F9FC431C8C
:1033300002D12B6803B1236038BD00BF54050020C3
:1033400038B50023054D044608462B6000F0F0FC1C
:10335000431C02D12B6803B1236038BD5405002003
:1033600038B50023054D044608462B60FDF7C0FD27
:10337000431C02D12B6803B1236038BD54050020E3
:1033800070B5A1FB025434B92946FFF7ABFA0646E3
:1033900028B9304670BD0C2200260260F9E72A46A3
:1033A0002146FEF76FFBF4E782B001B901A942B1F3
:1033B0004BB113780B601278101E18BF012002B0B9
:1033C00070471046FBE76FF00100F8E70346084638
:1033D00041B1FF2A04D98A224FF0FF301A607047AA
:1033E00001200A707047FFFF81F0004102E000BF3A
:1033F00083F0004330B54FEA41044FEA430594EAB5
:10340000050F08BF90EA020F1FBF54EA000C55EAEF
:10341000020C7FEA645C7FEA655C00F0E2804FEAC0
:103420005454D4EB5555B8BF6D420CDD2C4480EAA2
:10343000020281EA030382EA000083EA010180EAD2
:10344000020281EA0303362D88BF30BD11F0004F20
:103450004FEA01314FF4801C4CEA113102D0404256
:1034600061EB410113F0004F4FEA03334CEA133391
:1034700002D0524263EB430394EA050F00F0A780A9
:10348000A4F10104D5F1200E0DDB02FA0EFC22FAA4
:1034900005F2801841F1000103FA0EF2801843FA98
:1034A00005F359410EE0A5F120050EF1200E012A89
:1034B00003FA0EFC28BF4CF0020C43FA05F3C018C7
:1034C00051EBE37101F0004507D54FF0000EDCF140
:1034D000000C7EEB00006EEB0101B1F5801F1BD3E9
:1034E000B1F5001F0CD349085FEA30004FEA3C0CED
:1034F00004F101044FEA445212F5800F80F09A80E3
:10350000BCF1004F08BF5FEA500C50F1000041EBE6
:10351000045141EA050130BD5FEA4C0C404141EBEA
:103520000101013C28BFB1F5801FE9D291F0000FE5
:1035300004BF01460020B1FA81F308BF2033A3F194
:103540000B03B3F120020CDA0C3208DD02F1140C8B
:10355000C2F10C0201FA0CF021FA02F10CE002F1C6
:103560001402D8BFC2F1200C01FA02F120FA0CFCBF
:10357000DCBF41EA0C019040E41AA2BF01EB045108
:10358000294330BD6FEA04041F3C1CDA0C340EDC06
:1035900004F11404C4F1200220FA04F001FA02F349
:1035A00040EA030021FA04F345EA030130BDC4F107
:1035B0000C04C4F1200220FA02F001FA04F340EAFC
:1035C0000300294630BD21FA04F0294630BD94F0AD
:1035D000000F83F4801306BF81F480110134013D94
:1035E0004EE77FEA645C18BF7FEA655C29D094EA05
:1035F000050F08BF90EA020F05D054EA000C04BF83
:103600001946104630BD91EA030F1EBF002100206D
:1036100030BD5FEA545C05D14000494128BF41F00C
:10362000004130BD14F580043CBF01F5801130BD70
:1036300001F0004545F0FE4141F470014FF00000FB
:1036400030BD7FEA645C1ABF194610467FEA655CAC
:103650001CBF0B46024650EA013406BF52EA03354E
:1036600091EA030F41F4002130BD00BF90F0000F3C
:1036700004BF0021704730B54FF4806404F1320478
:103680004FF000054FF0000150E700BF90F0000F31
:1036900004BF0021704730B54FF4806404F1320458
:1036A00010F0004548BF40424FF000013EE700BF28
:1036B00042004FEAE2014FEA31014FEA02701FBFB8
:1036C00012F07F4393F07F4F81F06051704732F0EA
:1036D0007F4208BF704793F07F4F04BF41F4002141
:1036E000704730B54FF4607401F0004521F000419F
:1036F0001CE700BF50EA010208BF704730B54FF029
:1037000000050AE050EA010208BF704730B511F029
:10371000004502D5404261EB41014FF4806404F161
:1037200032045FEA915C3FF4D8AE4FF003025FEAE7
:10373000DC0C18BF03325FEADC0C18BF033202EB6B
:10374000DC02C2F1200300FA03FC20FA02F001FAC5
:1037500003FE40EA0E0021FA02F11444BDE600BF68
:1037600070B54FF0FF0C4CF4E06C1CEA11541DBF17
:103770001CEA135594EA0C0F95EA0C0F00F0DEF8E2
:103780002C4481EA030621EA4C5123EA4C5350EAC7
:10379000013518BF52EA033541F4801143F4801318
:1037A00038D0A0FB02CE4FF00005E1FB02E506F0A9
:1037B0000042E0FB03E54FF00006E1FB03569CF0FE
:1037C000000F18BF4EF0010EA4F1FF04B6F5007F04
:1037D00064F5407404D25FEA4E0E6D4146EB060676
:1037E00042EAC62141EA55514FEAC52040EA5E50FF
:1037F0004FEACE2EB4F1FD0C88BFBCF5E06F1ED8A9
:10380000BEF1004F08BF5FEA500E50F1000041EBDF
:10381000045170BD06F0004646EA010140EA02008C
:1038200081EA0301B4EB5C04C2BFD4EB0C0541EAAE
:10383000045170BD41F480114FF0000E013C00F3C3
:10384000AB8014F1360FDEBF002001F0004170BDE7
:10385000C4F10004203C35DA0C341BDC04F1140400
:10386000C4F1200500FA05F320FA04F001FA05F28C
:1038700040EA020001F0004221F0004110EBD37059
:1038800021FA04F642EB06015EEA430E08BF20EA85
:10389000D37070BDC4F10C04C4F1200500FA04F328
:1038A00020FA05F001FA04F240EA020001F00041BA
:1038B00010EBD37041F100015EEA430E08BF20EA2D
:1038C000D37070BDC4F1200500FA05F24EEA020E75
:1038D00020FA04F301FA05F243EA020321FA04F0A4
:1038E00001F0004121FA04F220EA020000EBD3705B
:1038F0005EEA430E08BF20EAD37070BD94F0000F5B
:103900000FD101F00046400041EB010111F4801F8E
:1039100008BF013CF7D041EA060195F0000F18BF3F
:10392000704703F00046520043EB030313F4801F7B
:1039300008BF013DF7D043EA0603704794EA0C0F35
:103940000CEA135518BF95EA0C0F0CD050EA41064B
:1039500018BF52EA4306D1D181EA030101F00041C8
:103960004FF0000070BD50EA410606BF10461946F0
:1039700052EA430619D094EA0C0F02D150EA0136FC
:1039800013D195EA0C0F05D152EA03361CBF10463D
:1039900019460AD181EA030101F0004141F0FE41DC
:1039A00041F470014FF0000070BD41F0FE4141F460
:1039B000780170BD70B54FF0FF0C4CF4E06C1CEA60
:1039C00011541DBF1CEA135594EA0C0F95EA0C0F15
:1039D00000F0A7F8A4EB050481EA030E52EA0335D0
:1039E0004FEA013100F088804FEA03334FF08055F1
:1039F00045EA131343EA12634FEA022245EA11151E
:103A000045EA10654FEA00260EF000419D4208BFCE
:103A1000964244F1FD0404F5407402D25B084FEA7B
:103A20003202B61A65EB03055B084FEA32024FF427
:103A300080104FF4002CB6EB020E75EB030E22BF84
:103A4000B61A754640EA0C005B084FEA3202B6EB44
:103A5000020E75EB030E22BFB61A754640EA5C00F3
:103A60005B084FEA3202B6EB020E75EB030E22BF83
:103A7000B61A754640EA9C005B084FEA3202B6EB84
:103A8000020E75EB030E22BFB61A754640EADC0043
:103A900055EA060E18D04FEA051545EA16754FEAA5
:103AA00006164FEAC30343EA52734FEAC2025FEAC3
:103AB0001C1CC0D111F4801F0BD141EA00014FF052
:103AC00000004FF0004CB6E711F4801F04BF014323
:103AD0000020B4F1FD0C88BFBCF5E06F3FF6AFAE3F
:103AE000B5EB030C04BFB6EB020C5FEA500C50F1CF
:103AF000000041EB045170BD0EF0004E4EEA113152
:103B000014EB5C04C2BFD4EB0C0541EA045170BD58
:103B100041F480114FF0000E013C90E645EA060E9C
:103B20008DE60CEA135594EA0C0F08BF95EA0C0FCA
:103B30003FF43BAF94EA0C0F0AD150EA01347FF412
:103B400034AF95EA0C0F7FF425AF104619462CE7E9
:103B500095EA0C0F06D152EA03353FF4FDAE10464C
:103B6000194622E750EA410618BF52EA43067FF49D
:103B7000C5AE50EA41047FF40DAF52EA43057FF42D
:103B8000EBAE12E74FF0FF3C06E000BF4FF0010C38
:103B900002E000BF4FF0010C4DF804CD4FEA410C9C
:103BA0007FEA6C5C4FEA430C18BF7FEA6C5C1BD069
:103BB00001B050EA410C0CBF52EA430C91EA030FEA
:103BC00002BF90EA020F0020704710F1000F91EA47
:103BD000030F58BF994208BF90422CBFD8176FEA15
:103BE000E37040F0010070474FEA410C7FEA6C5CE3
:103BF00002D150EA013C07D14FEA430C7FEA6C5CEA
:103C0000D6D152EA033CD3D05DF8040B704700BF15
:103C10008446104662468C461946634600E000BF63
:103C200001B5FFF7B7FF002848BF10F1000F01BD35
:103C30004DF808EDFFF7F4FF0CBF012000205DF800
:103C400008FB00BF4DF808EDFFF7EAFF34BF012085
:103C500000205DF808FB00BF4DF808EDFFF7E0FF1E
:103C600094BF012000205DF808FB00BF4DF808ED6F
:103C7000FFF7CEFF94BF012000205DF808FB00BFD6
:103C80004DF808EDFFF7C4FF34BF012000205DF8B8
:103C900008FB00BF4FEA410C7FEA6C5C02D150EA9E
:103CA000013C0AD14FEA430C7FEA6C5C02D152EA34
:103CB000033C02D14FF0000070474FF00100704705
:103CC0004FEA410212F5001215D211D56FF4787344
:103CD000B3EB625212D94FEAC12343F0004343EAE7
:103CE000505311F0004F23FA02F018BF40427047C2
:103CF0004FF00000704750EA013005D111F000404C
:103D000008BF6FF0004070474FF00000704700BFE1
:103D1000024B58224FF0FF301A60704754050020C4
:103D2000024B58224FF0FF301A60704754050020B4
:103D3000024B582200201A60704700BF5405002033
:103D4000024B58224FF0FF301A6070475405002094
:103D5000024B58224FF0FF301A6070475405002084
:103D60004275696C7420776974682052656E65735A
:103D7000617320416476616E63656420466C65788A
:103D800069626C6520536F6674776172652050615B
:103D9000636B6167652076657273696F6E20352E7F
:103DA000352E3000352E352E300000000000050580
:103DB000F8B500BFF8BC08BC9E467047F8B500BF18
:103DC000F8BC08BC9E4670474653505F535543436A
:103DD000455353203D3D2065727200002E2E2F73F7
:103DE00072632F68616C5F656E7472792E63000078
:103DF00068656C6C6F20776F726C64210000000046
:103E000048656C6C6F20653273747564696F21004E
:103E100068616C5F656E74727900FFFF09020000D3
:103E20000C000C010C020C0300000000000000005C
:103E300051020000000000003C3E000000010000B4
:103E4000000000200F00FFFF00000000FFFF000047
:103E5000070000005C3E00000000000004000000BD
:103E60000200000004000000030100000400000044
:103E7000040100000000010008010000000001052D
:103E800009010000000001050A0100000000010016
:103E900000030000B601B701B801B901000000003D
:103EA0000000000000000000000000000000000012
:103EB0000000000000000000000000000000000002
:103EC00000000000000000000000000000000000F2
:103ED00000000000000000000000000000000000E2
:103EE00000000000000000000000000000000000D2
:103EF00000000000000000000000000000000000C2
:103F000000000000000000000000000000000000B1
:103F100000000000000000000000000000000000A1
:103F20000000000000000000000000000000000091
:103F30000000000000000000000000000000000081
:103F40000000000000000000000000000000000071
:103F500000000000020403040404FFFF010002004B
:103F600008001000494E4600696E66004E414E0042
:103F70006E616E003000496E66696E697479004E3C
:103F8000614E005245454E54206D616C6C6F63204C
:103F9000737563636565646564002F646174612F84
:103FA0006A656E6B696E732F776F726B7370616386
:103FB000652F474E552D746F6F6C636861696E2F66
:103FC00061726D2D31332F7372632F6E65776C695B
:103FD000622D63796777696E2F6E65776C69622FE2
:103FE0006C6962632F7374646C69622F64746F61AF
:103FF0002E630042616C6C6F63207375636365654B
:10400000646564002F646174612F6A656E6B696E0C
:10401000732F776F726B73706163652F474E552DE9
:10402000746F6F6C636861696E2F61726D2D3133CF
:104030002F7372632F6E65776C69622D6379677772
:10404000696E2F6E65776C69622F6C6962632F737E
:1040500074646C69622F6D707265632E6300430037
:10406000504F534958002E00050000001900000071
:104070007D000000FFFFFFFF0080E03779C3414370
:10408000176E05B5B5B89346F5F93FE9034F384DBE
:10409000321D30F94877825A3CBF737FDD4F15756A
:1040A000000000000000F03F00000000000024407D
:1040B00000000000000059400000000000408F4058
:1040C000000000000088C34000000000006AF840C3
:1040D0000000000080842E4100000000D0126341E7
:1040E0000000000084D797410000000065CDCD415D
:1040F000000000205FA00242000000E8764837423E
:10410000000000A2941A6D42000040E59C30A242DB
:104110000000901EC4BCD64200003426F56B0C4350
:104120000080E03779C3414300A0D88557347643F7
:1041300000C84E676DC1AB43003D9160E458E14358
:10414000408CB5781DAF154450EFE2D6E41A4B44CD
:1041500092D54D06CFF08044F64AE1C7022DB54412
:10416000B49DD9794378EA440020202020202020E3
:104170002020282828282820202020202020202017
:104180002020202020202020208810101010101027
:104190001010101010101010100404040404040473
:1041A000040404101010101010104141414141410D
:1041B00001010101010101010101010101010101EF
:1041C00001010101101010101010424242424242FF
:1041D00002020202020202020202020202020202BF
:1041E0000202020210101010200000000000000067
:1041F00000000000000000000000000000000000BF
:1042000000000000000000000000000000000000AE
:10421000000000000000000000000000000000009E
:10422000000000000000000000000000000000008E
:10423000000000000000000000000000000000007E
:10424000000000000000000000000000000000006E
:10425000000000000000000000000000000000005E
:10426000000000000000000000FFFFFF1000000041
:1042700000000000017A5200027C0E011B0C0D00B0
:104280001000000018000000CCD8FFFF1000000054
:08429000000000000000000026
:104298004400019D000000000300000018040020F5
:1042A80014000020000000001804002080040020F2
:1042B800E8040020000000000000000000000000EA
:1042C80000000000000000000000000000000000E6
:1042D80000000000000000000000000000000000D6
:1042E80000000000000000000000000000000000C6
:1042F8004300000000000000000000000000000073
:1043080000000000000000000000000000000000A5
:104318004300000000000000000000000000000052
:104328000000000000000000000000000000000085
:104338004300000000000000000000000000000032
:104348000000000000000000000000000000000065
:104358004300000000000000000000000000000012
:104368000000000000000000000000000000000045
:1043780043000000000000000000000000000000F2
:104388000000000000000000000000000000000025
:1043980043000000000000000000000000000000D2
:1043A8000000000000000000000000000000000005
:1043B80043000000000000000000000000000000B2
:1043C80000000000000000000000000000000000E5
:1043D800CD330000A9330000000000006841000050
:1043E800664000006740000067400000674000002A
:1043F8006740000067400000674000006740000019
:104408006740000067400000FFFFFFFFFFFFFFFF5E
:10441800FFFFFFFFFFFF0000010041534349490030
:104428000000000000000000000000000000000084
:10443800000000000000000000004153434949000B
:104448000000000000000000000000000000000064
:104458000000000000000000000000002D02000025
:044468000502000049
:020000040100F9
:10A10000FFFFFFFFFFFFFFFFFFFFFFFFFFFFFFFF5F
:04A13400FFFFFFFF2B
:10A20000FFFDFFFFFFFFFFFFFFFFFFFFFFFFFFFF60
:10A21000FFFFFFFFFFFFFFFFFFFFFFFFFFFFFFFF4E
:10A22000FFFFFFFFFFFFFFFFFFFFFFFFFFFFFFFF3E
:10A23000FFFFFFFFFFFFFFFFFFFFFFFFFFFFFFFF2E
:10A24000FFFFFFFFFFFFFFFFFFFFFFFFFFFFFFFF1E
:10A25000FFFFFFFFFFFFFFFFFFFFFFFFFFFFFFFF0E
:10A26000FFFFFFFFFFFFFFFFFFFFFFFFFFFFFFFFFE
:10A27000FFFFFFFFFFFFFFFFFFFFFFFFFFFFFFFFEE
:10A28000F8F8FFFFFFFFFFFFFFFFFFFFFFFFFFFFEC
:10A29000FFFFFFFFFFFFFFFFFFFFFFFFFFFFFFFFCE
:10A2A000FFFFFFFFFFFFFFFFFFFFFFFFFFFFFFFFBE
:10A2B000FFFFFFFFFFFFFFFFFFFFFFFFFFFFFFFFAE
:10A2C000FFFFFFFFFFFFFFFFFFFFFFFFFFFFFFFF9E
:0400000300000F35B5
:00000001FF
