S01700005241344D325F50726F6A65637431302E7372656330
S3150000000050060020ED08000055070000E908000032
S31500000010E9080000E9080000E9080000E908000016
S31500000020000000000000000000000000E9080000D9
S31500000030E908000000000000E9080000E9080000E7
S315000000400348044B834202D0034B03B11847704761
S31500000050080000200800002000000000064B0749A9
S31500000060C91A891048BF0131491003D0044B0BB19E
S3150000007001481847704700BF08000020080000200C
S315000000800000000010B5064C237843B9FFF7D8FFEF
S31500000090044B13B10448AFF300800123237010BD55
S315000000A02800002000000000C40B000008B5054B26
S315000000B01BB105490548AFF30080BDE80840FFF7CE
S315000000C0CDBF00BF000000002C000020C40B0000C4
S315000000D008B50849084800F03DF920B9BDE80840D0
S315000000E0054800F003B91321044B054A054800F002
S315000000F0FDFA00BFA00A00004C0000206C0A0000B8
S31500000100940A0000800A0000022800D070470249C5
S31500000110024800F0AFB800BFC80A00004400002043
S3150000012008B5FFF7D5FF002008BD00BF2DE9F84F41
S315000001300388DBB180464FF000094FF0010BDFF872
S3150000014084A000241E4D4FEAC907D8F8043035F8BC
S31500000150022BD919898891420AD00134032CF4D193
S31500000160B8F8003009F101094B45EAD8BDE8F88F27
S31500000170DB590BFA04F603F0B853B3F1807FF6B2FD
S315000001809AF8BB340ED03342E7D0012000F082FB50
S315000001909AF8BB34012023EA06038AF8BB3400F040
S315000001A049FBDAE73342D8D1012000F073FB9AF815
S315000001B0BB34012033438AF8BB3400F03BFBCCE769
S315000001C0F40A000000E00140F8B50646FFF7AEFF6E
S315000001D0EFF31082012383F31088234F3B681BB98A
S315000001E02249CB704023CB703B6801333B6082F3DE
S315000001F01088338823B300211D4D08E01B011344EA
S3150000020045F82340328801318BB29A4218D9736877
S3150000021053F8314003EBC1029288E0034FEA122300
S31500000220D2B2EBD502EB031055F820E024F4803C63
S315000002302EF4803E45F820E01B0145F820C0DEE79D
S31500000240EFF31082012383F310883B6813B13B68F8
S31500000250013B3B603B681BB980200449CB70C870EA
S3150000026082F31088F8BD00BFBC000020000D0840D6
S315000002700008084008B5034B03600846FFF7A4FFD3
S31500000280002008BD54524F5010B44368016193F8E2
S3150000029010C0154C1A7844F82C104B1E72B9490838
S315000002A0047B8268C4B1516082689160017B826878
S315000002B071B99BB213805DF8044B7047012A10D0C8
S315000002C0022A18BF0021EBD1017B82680029F0D0F9
S315000002D013605DF8044B704789B251808268918043
S315000002E0F2E71946DCE700BF6C00002010B5037B7F
S315000002F084680BB30C34227802F001022378C3F32E
S3150000030040039A42FAD143681B78012B16D0F12399
S31500000310237043681B78012B01D0002010BD237881
S315000003209B07FCD5037B826863B14FF0FF335360B4
S3150000033082680020936010BD0834DCE70169FFF78E
S31500000340A3FFE4E74FF6FF73538082680020938093
S3150000035010BD00BF00232DE9F04F037341600A7CF6
S315000003600446120202F1804202F568220D4683B06D
S315000003708260EFF31080012383F31088097C032940
S3150000038000F28C80C1F103018B40DB436049CE68EB
S315000003900C3133400B602E7C5E495F4B032E98BFB9
S315000003A00B461B6880F3108800231372137AC3F37D
S315000003B040019B07FAD4917294F80CE02F7AEB690E
S315000003C0D4F80880BEF1000F65D008F10C01DA7888
S315000003D01E7802F0070218790192002E55D1002FDF
S315000003E064D1666893F801C096F800A00CF077090E
S315000003F0BAF1020F62D09B7813F0070305D040F0E4
S315000004000400032B08BF40F00100019B087181F82E
S3150000041006904B708F7020466968FFF735FF95F997
S315000004201230002B26DB6A7C03F160411201D2B246
S3150000043001F5614181F800233849394A41F82340E2
S3150000044003F1C00152F8210020F4803042F8210067
S3150000045052F82120BFF35F8F01215A09920003F061
S315000004601F0302F1604202F5614201FA03F3C2F88A
S315000004708031136000206B692A4A6361AB69226090
S31500000480C4E9060303B0BDE8F08F502E019A3AD0B6
S3150000049032430192A5E708F1080198E7C1F113017B
S315000004A08B401B49DB430E69103172E787F0020768
S315000004B042EA0712D2B23746019292E7D6F804B062
S315000004C0D6F80CA00BF1FF36A6EB0A020CF0070BD0
S315000004D00CF0700CBBF1070F0CBF16465646BCF16C
S315000004E0700F18BF5246BEF1000F04D0C8F8046062
S315000004F0A668B2607FE71FFA86FBA8F802B096B23C
S31500000500A268968077E742F050020027019268E7DA
S31500000510004008400C40084010400840C000002041
S315000005200060004054474100064B074993F82600F7
S315000005301A6A51F82030C2F302620449D3400B60B4
S31500000540704700BF00E0014008000020480200207C
S31500000550704700BF4AF2035001233F493F4A2DE945
S31500000560F041A1F8FE03A2F80431B2F804319BB2BF
S31500000570002BFAD101274FF4004120250920384CE1
S31500000580DFF8F4C0374EC4F804C0DFF8F0C0324BD1
S31500000590C4F80CC0A2F80071334A2660A16021613C
S315000005A0626193F82620196A54F822202F4EC1F36F
S315000005B00261CA40326083F8135483F8A20093F8AC
S315000005C080241AB993F881349A073FD0224D95F8C2
S315000005D0803483B30022204B83F8812483F880245F
S315000005E000231D4A82F8323092F83C301B07FBD5B7
S315000005F00025032143F20218F1274FF0F00E4FF4C5
S31500000600254C1B48A2F8288082F82A50106282F8EE
S31500000610261092F82610106A54F82110154BC0F3D4
S315000006200260C14031601F731D7283F80CE0A2F8AE
S31500000630FEC3BDE8F0810121C82085F8801400F0D2
S315000006405DF895F88034012BFBD1C3E74FF47A703F
S31500000650FFF77EFFC4E700BF00E0014000C0014095
S3150000066008000020002D310100E1F50548020020B8
S31500000670211202110020004000127A00001BB70070
S3150000068038B50025164C0121C82084F8285000F002
S3150000069035F884F8245094F82430002BFBD194F8D4
S315000006A024300F4A43F0020384F8243092F82430B1
S315000006B0C3F340019B07F9D4094882F8221090F849
S315000006C0223003F0FF04002BF9D1012000F0E2F8FC
S315000006D0044B012083F8BB44BDE8384000F0AAB8BB
S315000006E00030084000E00140704700BF00BEFEE752
S315000006F0A0F101000028FBD1704700BF4FF47A73C8
S3150000070010B400FB01F1114C114A2468B2FBF4F25B
S31500000710A1FB03043CB9B0FBF2F0800860B15DF8C0
S31500000720044BFFF7E5BF9200B1FBF2F1A1FB031307
S315000007302BB908460028F2D15DF8044B70474FF0FC
S31500000740FF3C5DF8044B6046FFF7D2BF480200202D
S3150000075000CA9A3B70B500240B4B0C4EB3F820210F
S31500000760B3F84051ADB2154025FA04F3DB0704D5C2
S3150000077056F82430E0B203B1984701340E2CF3D179
S31500000780014BA3F8305170BD00600040840000208A
S3150000079030B5032085B000F07DF86FF0FF054FF00F
S315000007A0FF31204C002322464FF0010E1E4885647F
S315000007B0CDE90111039104F1C00532F8020F590980
S315000007C060B104A800EB810151F80C0C03F01F0C7A
S315000007D00EFA0CFC20EA0C0041F80C0C954203F1D1
S315000007E00103EAD10199114B0F4A03201167C3F89F
S315000007F0801202995167C3F8841203999167C3F86E
S31500000800881200F017F80023094834F8022F03F184
S31500000810C00101330AB140F82120A542F5D105B047
S3150000082030BD00BFFA0A00000080004000E100E091
S3150000083000600040EFF31081012383F31088124B10
S3150000084033F8102092B22AB133F81020013A92B24E
S3150000085023F8102033F810309BB293B910B40B4A2A
S315000008600B4CB2F8FE3334F810009BB243F4254328
S3150000087023EA0003A2F8FE3381F310885DF8044BE7
S31500000880704781F3108870474002002000E0014065
S31500000890BC0B000030B4EFF31081012383F3108802
S315000008A00E4A32F810309BB26BB90D4C0D4DB4F8B0
S315000008B0FE3335F810C09BB243EA0C0343F42543DC
S315000008C09BB2A4F8FE3332F8103001339BB222F803
S315000008D0103081F3108830BC704700BF4002002002
S315000008E000E00140BC0B000000BE704708B500F0F8
S315000008F003F8FFF715FCFEE74FF4700270B52B4BBB
S315000009002B4CC3F8882000209C60FFF7FDFBFFF707
S3150000091021FE0120FFF7F8FB2368A3F5806383F32C
S315000009200A882448244A0021121A00F055F8234860
S31500000930234A2449121A00F057F8234D234B5B1B18
S31500000940002B07DD00249E1055F8043B0134984720
S31500000950A642F9DCFFF7E8FDFFF792FE0320FFF75A
S3150000096099FF4FF6FF720024194B03201A825A8210
S315000009709A82DA821A835A839A83DA83FFF75AFFB6
S315000009800320FFF787FF134B03205C609C60DC604D
S315000009901C61FFF74FFF0220FFF7B6FBFFF7F8FEDB
S315000009A02046BDE87040FFF79FBE00BF00ED00E0A7
S315000009B000000000280000204C020020000000205B
S315000009C008000020C80B00000000002004000020E2
S315000009D0000D084000000E4002440346934200D139
S315000009E0704703F8011BF9E70A44431E914200D100
S315000009F0704710B511F8014B914203F8014FF9D138
S31500000A0010BDFFFF4275696C7420776974682052C7
S31500000A10656E6573617320416476616E63656420FB
S31500000A20466C657869626C6520536F66747761728F
S31500000A3065205061636B6167652076657273696FC7
S31500000A406E20352E352E3000352E352E3000000026
S31500000A5000000505F8B500BFF8BC08BC9E46704707
S31500000A60F8B500BFF8BC08BC9E4670474653505FB9
S31500000A7053554343455353203D3D20657272000054
S31500000A802E2E2F7372632F68616C5F656E74727998
S31500000A902E6300FF68616C5F656E74727900FFFFFC
S31500000AA000000000B80B000000000000DC0500009C
S31500000AB000FFDF000000000000000000C00A000088
S31500000AC0000303010000000104000000D40A000036
S31500000AD0000000000000010100010000000001000C
S31500000AE008010000000001000003000000000101F1
S31500000AF000050000020403040404FFFF00000000D8
S31500000B0000000000000000000000000000000000DF
S31500000B1000000000000000000000000000000000CF
S31500000B2000000000000000000000000000000000BF
S31500000B3000000000000000000000000000000000AF
S31500000B40000000000000000000000000000000009F
S31500000B50000000000000000000000000000000008F
S31500000B60000000000000000000000000000000007F
S31500000B70000000000000000000000000000000006F
S31500000B80000000000000000000000000000000005F
S31500000B90000000000000000000000000000000004F
S31500000BA0000000000000000000000000000000003F
S31500000BB0000000000000000000000000010002002C
S30D00000BC008001000000000000F
S30D00000BC8AD00000085000000ED
S3150100A100FFFFFFFFFFFFFFFFFFFFFFFFFFFFFFFF58
S3090100A134FFFFFFFF24
S3150100A200FFFDFFFFFFFFFFFFFFFFFFFFFFFFFFFF59
S3150100A210FFFFFFFFFFFFFFFFFFFFFFFFFFFFFFFF47
S3150100A220FFFFFFFFFFFFFFFFFFFFFFFFFFFFFFFF37
S3150100A230FFFFFFFFFFFFFFFFFFFFFFFFFFFFFFFF27
S3150100A240FFFFFFFFFFFFFFFFFFFFFFFFFFFFFFFF17
S3150100A250FFFFFFFFFFFFFFFFFFFFFFFFFFFFFFFF07
S3150100A260FFFFFFFFFFFFFFFFFFFFFFFFFFFFFFFFF7
S3150100A270FFFFFFFFFFFFFFFFFFFFFFFFFFFFFFFFE7
S3150100A280F8F8FFFFFFFFFFFFFFFFFFFFFFFFFFFFE5
S3150100A290FFFFFFFFFFFFFFFFFFFFFFFFFFFFFFFFC7
S3150100A2A0FFFFFFFFFFFFFFFFFFFFFFFFFFFFFFFFB7
S3150100A2B0FFFFFFFFFFFFFFFFFFFFFFFFFFFFFFFFA7
S3150100A2C0FFFFFFFFFFFFFFFFFFFFFFFFFFFFFFFF97
S705000008ED05
