S01600005241344D325F50726F6A656374362E737265635C
S315000000002806002085090000ED0700008109000090
S3150000001081090000810900008109000081090000B2
S315000000200000000000000000000000008109000040
S31500000030810900000000000081090000810900001C
S315000000404D05000000000000000000000000000058
S31500000050000000000000000000000000000000009A
S31500000060000000000000000000000000000000008A
S31500000070000000000000000000000000000000007A
S31500000080000000000000000000000000000000006A
S31500000090000000000000000000000000000000005A
S315000000A0000000000000000000000000000000004A
S315000000B0000000000000000000000000000000003A
S315000000C0000000000000000000000000000000002A
S315000000D0000000000000000000000000000000001A
S315000000E0000000000000000000000000000000000A
S315000000F000000000000000000000000000000000FA
S3150000010000000000000000000000000000000000E9
S3150000011000000000000000000000000000000000D9
S3150000012000000000000000000000000000000000C9
S3150000013000000000000000000000000000000000B9
S3150000014000000000000000000000000000000000A9
S315000001500000000000000000000000000000000099
S315000001600000000000000000000000000000000089
S315000001700000000000000000000000000000000079
S315000001800000000000000000000000000000000069
S315000001900000000000000000000000000000000059
S315000001A00000000000000000000000000000000049
S315000001B00000000000000000000000000000000039
S315000001C00348044B834202D0034B03B118477047E0
S315000001D0080000200800002000000000064B074928
S315000001E0C91A891048BF0131491003D0044B0BB11D
S315000001F001481847704700BF08000020080000208B
S315000002000000000010B5064C237843B9FFF7D8FF6D
S31500000210044B13B10448AFF300800123237010BDD3
S315000002202800002000000000500C000008B5054B17
S315000002301BB105490548AFF30080BDE80840FFF74C
S31500000240CDBF00BF000000002C000020500C0000B5
S31500000250024A137883F001031370704744000020AC
S3150000026038B51A491A4800F00FF928B11821194B68
S31500000270194A1A4800F086FA154800F045F9F0B90F
S31500000280174D184C2A7872B1012240F2031120460C
S3150000029000F03CF800224FF48271204600F036F858
S315000002A02A78002AF0D140F20311204600F02EF8F9
S315000002B001224FF48271204600F028F8E2E71B2164
S315000002C0044B054A054800F05DFA00BF380B0000F4
S315000002D050000020040B00002C0B0000180B00003F
S315000002E04400002048000020022800D07047024940
S315000002F0024800F0BFB800BF4C0B000048000020C9
S3150000030008B5FFF7ADFF002008BD00BF0120CBB246
S31500000310984080B202B900040B0A5B0103F18043E6
S3150000032003F5002398600020704700BF2DE9F84FC1
S315000003300388DBB180464FF000094FF0010BDFF870
S3150000034084A000241E4D4FEAC907D8F8043035F8BA
S31500000350022BD919898891420AD00134032CF4D191
S31500000360B8F8003009F101094B45EAD8BDE8F88F25
S31500000370DB590BFA04F603F0B853B3F1807FF6B2FB
S315000003809AF8BB340ED03342E7D0012000F0CEFA03
S315000003909AF8BB34012023EA06038AF8BB3400F03E
S315000003A095FADAE73342D8D1012000F0BFFA9AF87D
S315000003B0BB34012033438AF8BB3400F087FACCE71C
S315000003C0400C000000E00140F8B50646FFF7AEFF1E
S315000003D0EFF31082012383F31088234F3B681BB988
S315000003E02249CB704023CB703B6801333B6082F3DC
S315000003F01088338823B300211D4D08E01B011344E8
S3150000040045F82340328801318BB29A4218D9736875
S3150000041053F8314003EBC1029288E0034FEA1223FE
S31500000420D2B2EBD502EB031055F820E024F4803C61
S315000004302EF4803E45F820E01B0145F820C0DEE79B
S31500000440EFF31082012383F310883B6813B13B68F6
S31500000450013B3B603B681BB980200449CB70C870E8
S3150000046082F31088F8BD00BF98000020000D0840F8
S315000004700008084008B5034B03600846FFF7A4FFD1
S31500000480002008BD54524F5070B40025034691F920
S3150000049002201A4C0271920002F1804202F5C0421B
S315000004A0D2F80063C2F800538A688260CA68C260E4
S315000004B00878587125540D79CA7842EA05124D79A3
S315000004C042EAC512D2B2225493F90420C03244F84B
S315000004D0226093F9040000280BDB4A78084C1201CD
S315000004E000F16041D2B201F5614181F8002344F880
S315000004F02030044A00201A6070BC7047006000403B
S315000005009C0000205543490090F904200E4B02F14F
S31500000510C00153F8210020F4803043F8210053F83D
S315000005202130BFF35F8F012153099B0002F01F02A8
S3150000053003F1604303F5614301FA02F2C3F8802137
S315000005401A600020704700BF0060004010B582B0FE
S31500000550EFF30384184B103C64B253F82410174A87
S315000005604879135C03F00303032B12D0C03452F80E
S31500000570243023F4803342F8243052F824308B6838
S315000005802BB14879CA68CDE900206846984702B081
S3150000059010BD8B6823B1CA68CDE90020684698472C
S315000005A0064BC03453F8242022F4803243F824202A
S315000005B053F8243002B010BD9C00002000600040BB
S315000005C0064B074993F826001A6A51F82030C2F301
S315000005D002620449D3400B60704700BF00E001404F
S315000005E00800002024020020704700BF4AF2035092
S315000005F001233F493F4A2DE9F041A1F8FE03A2F845
S315000006000431B2F804319BB2002BFAD101274FF422
S31500000610004120250920384CDFF8F4C0374EC4F8D5
S3150000062004C0DFF8F0C0324BC4F80CC0A2F8007169
S31500000630334A2660A1602161626193F82620196A17
S3150000064054F822202F4EC1F30261CA40326083F86B
S31500000650135483F8A20093F880241AB993F88134CE
S315000006609A073FD0224D95F8803483B30022204B61
S3150000067083F8812483F8802400231D4A82F83230CF
S3150000068092F83C301B07FBD50025032143F20218E4
S31500000690F1274FF0F00E4FF4254C1B48A2F82880A6
S315000006A082F82A50106282F8261092F82610106AF4
S315000006B054F82110154BC0F30260C14031601F731E
S315000006C01D7283F80CE0A2F8FEC3BDE8F08101219B
S315000006D0C82085F8801400F05DF895F88034012B69
S315000006E0FBD1C3E74FF47A70FFF77EFFC4E700BF84
S315000006F000E0014000C0014008000020002D31014B
S3150000070000E1F5052402002021120211002000401C
S3150000071000127A00001BB70038B50025164C0121DF
S31500000720C82084F8285000F035F884F8245094F84E
S315000007302430002BFBD194F824300F4A43F00203F7
S3150000074084F8243092F82430C3F340019B07F9D48F
S31500000750094882F8221090F8223003F0FF04002B9B
S31500000760F9D1012000F0E2F8044B012083F8BB44E4
S31500000770BDE8384000F0AAB80030084000E001406B
S31500000780704700BF00BEFEE7A0F101000028FBD1C4
S31500000790704700BF4FF47A7310B400FB01F1114C9F
S315000007A0114A2468B2FBF4F2A1FB03043CB9B0FB86
S315000007B0F2F0800860B15DF8044BFFF7E5BF9200E8
S315000007C0B1FBF2F1A1FB03132BB908460028F2D1C5
S315000007D05DF8044B70474FF0FF3C5DF8044B6046F4
S315000007E0FFF7D2BF2402002000CA9A3B70B500244E
S315000007F00B4B0C4EB3F82021B3F84051ADB2154067
S3150000080025FA04F3DB0704D556F82430E0B203B129
S31500000810984701340E2CF3D1014BA3F8305170BD2B
S31500000820006000406000002030B5032085B000F075
S315000008307DF86FF0FF054FF0FF31204C0023224674
S315000008404FF0010E1E488564CDE90111039104F1B4
S31500000850C00532F8020F590960B104A800EB810106
S3150000086051F80C0C03F01F0C0EFA0CFC20EA0C00DD
S3150000087041F80C0C954203F10103EAD10199114BA1
S315000008800F4A03201167C3F8801202995167C3F813
S31500000890841203999167C3F8881200F017F80023B1
S315000008A0094834F8022F03F1C00101330AB140F8B8
S315000008B02120A542F5D105B030BD00BF7E0B00005A
S315000008C00080004000E100E000600040EFF310818E
S315000008D0012383F31088124B33F8102092B22AB109
S315000008E033F81020013A92B223F8102033F8103072
S315000008F09BB293B910B40B4A0B4CB2F8FE3334F8E2
S3150000090010009BB243F4254323EA0003A2F8FE330A
S3150000091081F310885DF8044B704781F310887047A7
S315000009201C02002000E00140480C000030B4EFF348
S315000009301081012383F310880E4A32F810309BB2DF
S315000009406BB90D4C0D4DB4F8FE3335F810C09BB2A3
S3150000095043EA0C0343F425439BB2A4F8FE3332F872
S31500000960103001339BB222F8103081F3108830BC6E
S31500000970704700BF1C02002000E00140480C000048
S3150000098000BE704708B500F003F8FFF7B9FCFEE7B4
S315000009904FF4700270B52B4B2B4CC3F88820002007
S315000009A09C60FFF7A1FCFFF721FE0120FFF79CFCEE
S315000009B02368A3F5806383F30A882448244A002128
S315000009C0121A00F055F82348234A2449121A00F057
S315000009D057F8234D234B5B1B002B07DD00249E108D
S315000009E055F8043B01349847A642F9DCFFF7E8FDC9
S315000009F0FFF792FE0320FFF799FF4FF6FF720024E0
S31500000A00194B03201A825A829A82DA821A835A83EF
S31500000A109A83DA83FFF75AFF0320FFF787FF134B0A
S31500000A2003205C609C60DC601C61FFF74FFF0220C6
S31500000A30FFF75AFCFFF7F8FE2046BDE87040FFF7C7
S31500000A409FBE00BF00ED00E000000000280000206F
S31500000A50280200200000002008000020540C00009E
S31500000A600000002004000020000D084000000E4099
S31500000A7002440346934200D1704703F8011BF9E78D
S31500000A800A44431E914200D1704710B511F8014B3C
S31500000A90914203F8014FF9D110BDFFFF4275696C11
S31500000AA07420776974682052656E6573617320419E
S31500000AB06476616E63656420466C657869626C6510
S31500000AC020536F667477617265205061636B61674E
S31500000AD0652076657273696F6E20352E352E30006F
S31500000AE0352E352E3000000000000505F8B500BF94
S31500000AF0F8BC08BC9E467047F8B500BFF8BC08BCF9
S31500000B009E4670474653505F5355434345535320C3
S31500000B103D3D2065727200002E2E2F7372632F6882
S31500000B20616C5F656E7472792E6300FF68616C5F3D
S31500000B30656E74727900FFFF040C0001030000006B
S31500000B405102000000000000000000000500000047
S31500000B50580B000000000000040000000301000024
S31500000B60040000000401000000000100080100006C
S31500000B70004000000B01000000000100000300001F
S31500000B80050000000000000000000000000000005A
S31500000B90000000000000000000000000000000004F
S31500000BA0000000000000000000000000000000003F
S31500000BB0000000000000000000000000000000002F
S31500000BC0000000000000000000000000000000001F
S31500000BD0000000000000000000000000000000000F
S31500000BE000000000000000000000000000000000FF
S31500000BF000000000000000000000000000000000EF
S31500000C0000000000000000000000000000000000DE
S31500000C1000000000000000000000000000000000CE
S31500000C2000000000000000000000000000000000BE
S31500000C3000000000000000000000000000000000AE
S31500000C40020403040404FFFF010002000800100070
S30900000C50000000009A
S30D00000C542D020000050200005C
S3150100A100FFFFFFFFFFFFFFFFFFFFFFFFFFFFFFFF58
S3090100A134FFFFFFFF24
S3150100A200FFFDFFFFFFFFFFFFFFFFFFFFFFFFFFFF59
S3150100A210FFFFFFFFFFFFFFFFFFFFFFFFFFFFFFFF47
S3150100A220FFFFFFFFFFFFFFFFFFFFFFFFFFFFFFFF37
S3150100A230FFFFFFFFFFFFFFFFFFFFFFFFFFFFFFFF27
S3150100A240FFFFFFFFFFFFFFFFFFFFFFFFFFFFFFFF17
S3150100A250FFFFFFFFFFFFFFFFFFFFFFFFFFFFFFFF07
S3150100A260FFFFFFFFFFFFFFFFFFFFFFFFFFFFFFFFF7
S3150100A270FFFFFFFFFFFFFFFFFFFFFFFFFFFFFFFFE7
S3150100A280F8F8FFFFFFFFFFFFFFFFFFFFFFFFFFFFE5
S3150100A290FFFFFFFFFFFFFFFFFFFFFFFFFFFFFFFFC7
S3150100A2A0FFFFFFFFFFFFFFFFFFFFFFFFFFFFFFFFB7
S3150100A2B0FFFFFFFFFFFFFFFFFFFFFFFFFFFFFFFFA7
S3150100A2C0FFFFFFFFFFFFFFFFFFFFFFFFFFFFFFFF97
S705000009856C
